:020000040800F2
:1000000058040020A9010008530E0008EB0D000859
:10001000510E0008B5020008B111000800000000F0
:10002000000000000000000000000000570E000863
:10003000B702000800000000550E0008590E000825
:10004000C3010008C3010008C3010008C301000880
:10005000C3010008C3010008C3010008C301000870
:10006000C3010008C3010008C3010008C301000860
:10007000C3010008C3010008C3010008C301000850
:10008000C3010008C3010008C3010008000000000C
:10009000000000000000000000000000C301000894
:1000A000C3010008C3010008C3010008C301000820
:1000B000C3010008C3010008C3010008C301000810
:1000C000C3010008C3010008C3010008C301000800
:1000D000C3010008A5110008C301000800000000CA
:1000E000C3010008C3010008C301000800000000AC
:1000F000000000000000000000000000C301000834
:1001000000000000C3010008C3010008C30100088B
:1001100000000000000000000000000000000000DF
:10012000C3010008C3010008C3010008C30100089F
:10013000C3010008000000000000000000000000F3
:10014000000000000000000000000000C3010008E3
:10015000C3010008C3010008C3010008C30100086F
:10016000C3010008C30100080000000000000000F7
:10017000000000000000000000000000000000007F
:1001800000000000C30100080000000000000000A3
:10019000C3010008DFF80CD000F07AF800480047EF
:1001A000ED14000858040020064880470648004720
:1001B000FEE7FEE7FEE7FEE7FEE7FEE7FEE7FEE717
:1001C000FEE7FEE7D50E0008950100082DE9F05F77
:1001D0000546002092469B468846064681464024B6
:1001E0001BE0284641464746224600F041F8534668
:1001F0005A46C01A914110D311461846224600F0C3
:1002000028F82D1A67EB01084F46224601200021ED
:1002100000F01FF817EB00094E41201EA4F1010465
:10022000DFDC484631462A464346BDE8F09FD2B25D
:1002300001E000F8012B491EFBD270470022F6E7CF
:1002400010B513460A4604461946FFF7F0FF20464C
:1002500010BD202A04DB203A00FA02F1002070478A
:100260009140C2F1200320FA03F3194390407047F4
:10027000202A04DB203A21FA02F00021704721FAFB
:1002800002F3D040C2F12002914008431946704762
:10029000064C074D06E0E06840F0010394E80700D3
:1002A00098471034AC42F6D3FFF778FF8415000866
:1002B000A4150008FEE77047704790F83510022932
:1002C00003D08021416501207047052180F8351059
:1002D0000068016821F00101016000207047000002
:1002E00070B5044600F0D8F80546601C02D00448FA
:1002F0000078044400F0D0F8401BA042FAD370BD4F
:10030000040000202DE9F84F00224FF001080325DA
:100310004FF00F0E0B6808FA02F42340A34271D18C
:100320004E68012E05D0022E03D0112E01D0122EC0
:1003300015D18668570005FA07FC26EA0C06D1F8A5
:100340000CC00CFA07FC4CEA060CC0F808C0466862
:10035000A6430C79C4F30014944034434460C66847
:10036000570005FA07FC8C6826EA0C06BC403443AB
:10037000C4604C68022C01D0122C13D1D40800EBBD
:100380008404A346D4F8209054074FEAD46A0EFAA6
:100390000AF629EA06090E6906FA0AF646EA090685
:1003A000CBF8206004680E7924EA0C0406F00306FA
:1003B000BE40264306604C68E40056D52E4C2668A5
:1003C00046F480462660246822F0030604F4804444
:1003D00000942A4C3444A446D4F808489607370FB2
:1003E0000EFA07F6B443264EB04201D1002615E0BE
:1003F000244EB04201D1012610E0234EB04202D17A
:1004000002260BE031E0214EB04201D1032605E087
:100410001F4EB04201D1042600E00726BE4026430D
:10042000CCF808681B4E34684F689C43FF0300D526
:100430001C433460174E361D34684F689C43BF031D
:1004400000D51C433460134E083634684F689C4313
:10045000FF0200D51C4334600E4E0C3634684F68E2
:100460009C43BF0200D51C433460521C102AFFF489
:1004700051AFBDE8F88F0000443802400030014021
:10048000000002400004024000080240000C02404C
:1004900000100240003C01400148806870470000A5
:1004A000040000200248816802781144816070478E
:1004B000040000200B4810B5016841F40071016090
:1004C000016841F480610160016841F4807101605C
:1004D000032000F06FF8002000F006F800F024F888
:1004E000002010BD003C024070B50D4D04464FF495
:1004F0007A712878B1FBF0F00A490968B1FBF0F095
:1005000000F004FB48B9102C07D200222146501EEF
:1005100000F030F800206C6070BD012070BD00005C
:1005200004000020100000200A4808B5016841F4CA
:1005300080410160006800F4804000900548001F81
:10054000016841F080510160006800F08050009027
:1005500008BD000044380240002809DB00F01F02FB
:10056000012191404009800000F1E020C0F8001115
:1005700070470000F0B40E4B1B680C46C3F3022317
:10058000C3F10705042D00D90425191D072901D23F
:10059000002300E0DB1E012606FA05F1491E21407A
:1005A00099409E40761E16403143F0BC00F012BECA
:1005B0000CED00E0064900F0070208684FF6FF0363
:1005C000184040EA0220034A1043086070470000C8
:1005D0000CED00E00000FA052DE9F0470E4605009D
:1005E00065D0DFF81481D8F80000F7B200F00F00F2
:1005F000B04207D288F80070D8F8000000F00F0071
:10060000B04254D128683D4C810712D5400703D52C
:10061000206840F4E05020602878000703D5206867
:1006200040F4604020602068A96820F0F000084392
:1006300020602878C0072DD0304968680839012823
:1006400012D0022813D0032811D009688907002985
:100650002DDA216821F0030101432160FFF71CFF1F
:10066000814641F2883A0EE009688903EFE709689C
:100670008901ECE7FFF710FFA0EB0901514502D912
:100680000320BDE8F0872068696800F00C00B0EB3B
:10069000810FEFD1D8F80010404601F00F01B142B0
:1006A00007D90770006800F00F00B04201D00120A8
:1006B000E7E72878400705D52068E96820F4E0508E
:1006C000084320602878000706D52068296920F4AF
:1006D000604040EAC100206000F038F82168084A14
:1006E000C1F30311515CC840064908600648006820
:1006F000FFF7FAFE0020C4E7003C02400838024041
:100700006C1500081000002008000020044805496E
:1007100000680968044AC1F38221515CC8407047EF
:1007200010000020083802407C15000804480549E4
:1007300000680968044AC1F34231515CC8407047FF
:1007400010000020083802407C150008154810B53C
:10075000006810F00C02144813D01449042A0FD07A
:10076000082A0ED10F4C241F2268236802F03F0292
:100770005B0207D52068C0F38810A0FB010106E0EA
:10078000084610BD2168C1F38811A1FB00010023B8
:10079000FFF71CFD2168C1F30141491C4900B0FB72
:1007A000F1F010BD083802400024F40040787D01CB
:1007B0002DE9F84F04006ED02078DFF83C93C00795
:1007C000A9F104054AD009F104000168C1F38101CF
:1007D000012908D00068C0F3810002280AD1D9F8A5
:1007E0000000400206D52868800337D560680028DD
:1007F000E1D033E06068B0F5803F10D0B0F5A02FB5
:10080000286810D020F480302860286820F48020E8
:1008100028606068A8B1FFF73FFE06460DE0286833
:1008200040F48030F4E740F480202860F7E700BF10
:10083000FFF732FE801B642873D828688003F7D541
:100840000CE0FFF729FE064605E000BFFFF724FE97
:10085000801B6428F0D828688003F7D42078DFF85C
:100860009C8280074FF0000A3ED5A348001D016816
:1008700011F00C0F08D00068C0F3810002280BD1E2
:10088000D9F80000400207D42868800716D5E06830
:10089000012800D112E02BE1E068B8B10120C8F8CE
:1008A0000000FFF7F9FD064605E000BFFFF7F4FD85
:1008B000801B0228C0D828688007F7D528682169DE
:1008C00020F0F80040EAC10028600DE0C8F800A060
:1008D000FFF7E2FD064604E0FFF7DEFD801B02287D
:1008E0001FD828688007F7D42078000722D5824EC9
:1008F00083486169703671B101210160FFF7CCFD59
:10090000074604E0FFF7C8FDC01B022809D830687D
:100910008007F7D50EE0C0F800A0FFF7BDFD074641
:1009200005E082E0FFF7B8FDC01B02287DD83068E3
:100930008007F7D42078400768D5DFF8BCB10027DE
:100940000BF13C0BDBF80000C0000BD4DBF800100F
:1009500041F08051CBF80010DBF80000012700F0D7
:1009600080500090674E3068C00510D4306840F465
:1009700080703060FFF790FD009005E0FFF78CFD80
:100980000099401A022850D83068C005F6D55A4E52
:10099000A0686C3601280FD00528306810D020F0F0
:1009A00001003060306820F004003060A068B8B109
:1009B000FFF772FD00900FE0306840F00100F4E7AF
:1009C00040F004003060F7E7FFF766FD0099411A38
:1009D00041F28830814266D830688007F4D50EE055
:1009E000FFF75AFD009007E0FFF756FD0099411A06
:1009F00041F28830814256D830688007F4D42FB154
:100A0000DBF8001021F08051CBF80010A069C8B3CA
:100A10003949091D0968C1F3810102294AD0022818
:100A2000504607D0C8F8600000E03CE0FFF734FD16
:100A300004463BE04746C8F86000FFF72DFD064638
:100A400005E000BFFFF728FD801B02282BD828688F
:100A50008001F7D4D4E907010843A16A2A4A49086A
:100A600002EB0141626A41EA8211084394F82C10BA
:100A700040EA0161C9F8001001203866FFF70CFD5B
:100A8000044606E036E000BFFFF706FD001B022823
:100A900009D828688001F7D52CE000BFFFF7FCFCDF
:100AA000001B022802D90320BDE8F88F28688001C6
:100AB000F4D41FE00128F7D0D9F80000E26900F46F
:100AC0008001914214D1226A00F03F0191420FD17E
:100AD00047F6C071626A0140914209D1A26A00F4EE
:100AE0004031914204D1E16A00F07060884201D047
:100AF0000120D9E70020D7E7043802400000474230
:100B0000800E4742007000400000FFFF10B5401EFD
:100B1000B0F1807F01D3012010BD4FF0E02460616F
:100B20000F21601700F056FB0020A0610720206114
:100B3000002010BD7047000070B5026804461068C0
:100B4000D168536910F00F0F52D003F0010501F482
:100B500090762E435FD0C20705D0CA0503D5E26B5D
:100B600042F00102E263420705D5DA0703D0E26BE7
:100B700042F00202E263820705D5DA0703D0E26B96
:100B800042F00402E263020707D501F020022A4383
:100B900003D0E26B42F00802E263E26B002A33D03A
:100BA000800604D5880602D5204600F0B7F92068F3
:100BB0004069E16BC0F38010090700D428B32046D8
:100BC00000F09EF92068416949061AD5416921F073
:100BD00040014161606BA0B11B490165606BFFF78B
:100BE0006CFB002810D0606B016DBDE870400847B9
:100BF000830610D58B060ED52046BDE8704000F068
:100C00008DB92046FFF796FF70BD2046FFF792FF93
:100C10000020E06370BD030606D50B0604D5204610
:100C2000BDE8704000F05ABA4006F3D54806F1D549
:100C3000D168204621F04001D160202184F839108C
:100C400000F0D2F870BD0000F10E000870B504008D
:100C500004D094F83900002510B106E0012070BDE1
:100C600084F83850204600F023F8242084F8390016
:100C70002068C16821F40051C160204600F09AF953
:100C80002068016921F4904101612068416921F0E7
:100C90002A0141612068C16841F40051C160E563E7
:100CA000202084F8390084F83A00002070BD00004C
:100CB00010B586B0044614216846FFF7BFFA1849FC
:100CC0002068884229D117480021026842F01002AA
:100CD0000260006800F010000590124814380268A5
:100CE00042F001020260006800F0010005904FF43C
:100CF000C06000900220CDE901010320039007208D
:100D0000049069460848FFF7FDFA002211462520A5
:100D1000FFF730FC2520FFF71FFC06B010BD0000D8
:100D200000100140443802400000024070472DE9A5
:100D3000F843044690F839001F4616460D46202811
:100D400050D1B5B1AEB194F8380001284AD0012095
:100D500084F838004FF00008C4F83C80212084F863
:100D60003900FFF799FBA6848146E68484F8388031
:100D700026E00120BDE8F883E08C401EE084A068F6
:100D80004B46B0F5805F4FF000024FF080012046E7
:100D9000009703D000F0D3F9E8B90DE000F0CFF9E7
:100DA000C8B928882168C0F308004860206908B1E4
:100DB0006D1C05E0AD1C03E0216815F8010B4860CF
:100DC000E08C0028D8D14B460022402120460097D5
:100DD00000F0B5F908B10320CCE7202084F83900F1
:100DE0000020C7E70220C5E77047FEE7094808B5BD
:100DF000016841F080010160016801F0800100910B
:100E0000016841F001010160006800F001000090FC
:100E100008BD0000303802400C4810B50A49016096
:100E20004FF416514160002181600C22C160C0E97D
:100E300004128161C161FFF709FF002803D0BDE8FA
:100E40001040FFF739BA10BD001001401800002013
:100E5000FEE7704770477047FFF724BB10B592B0AC
:100E600030216846FFF7EAF914210CA8FFF7E6F9EC
:100E700016480024016841F080510160006800F0CC
:100E8000805011901248016821F4404141F4004122
:100E900001600068069400F4404011900220009028
:100EA00001200390102004906846FFF781FC0F207A
:100EB000CDE90C044FF48050CDE90E4000210CA880
:100EC0001094FFF789FB12B010BD000040380240BB
:100ED000007000400548016841F470010160034959
:100EE0004FF00060803908607047000088ED00E036
:100EF00010B5806B0021C185C184FFF71BFE10BDBA
:100F00000168CA6822F49072CA6001684A6922F0D6
:100F100001024A61202180F83A10704710B590F81C
:100F20003A10222901D0022010BD8168B1F5805FFE
:100F300011D00169002901681FD0496801F07F03C1
:100F4000816A4A1C82620B70C18D491E0904090C1A
:100F5000C18518D02BE00269816A002A02685268B4
:100F600005D0D2B20A80816A491C8162ECE7C2F3E3
:100F700008020A80816A891CF7E74A68816A4B1C6B
:100F800083620A70E0E70168CA6822F02002CA6042
:100F90000168CA6822F48072CA6001684A6922F056
:100FA00001024A61202180F83A10FFF7BFFE0020BD
:100FB00010BD00002DE9F041044600680169E268B7
:100FC00021F44051114301612169A068E26908439D
:100FD0006169114308432168CA6849F20C639A4366
:100FE0000243CA6020684169A26921F4407111433B
:100FF0004161E069192764253226B0F5004F354A72
:10100000354920684FF0000806D0884201D0904250
:1010100036D1FFF78BFB35E0884201D0904202D1F8
:10102000FFF784FB01E0FFF771FB61684A18A0FB42
:10103000070148EB0803FFF7C9F80146B0FBF5F0DC
:101040000201B1FBF5F06FF01803584301EB80008B
:1010500006EBC000B0FBF5F000F0F80002EB400238
:10106000B1FBF5F0584301EB800006EBC000B0FB8C
:10107000F5F000F00700216810448860BDE8F081B9
:10108000FFF744FB61688B0F8A00A0FB0701FFF7A5
:101090009DF80146B0FBF5F06FF01802504301EBEC
:1010A000800006EB0010B0FBF5F000F0F002B1FBA1
:1010B000F5F002EB0012B1FBF5F06FF018035843A6
:1010C00001EB800006EB0010B0FBF5F000F00F0024
:1010D000D1E70000001401400010014090F83910E1
:1010E000212901D0022070478168B1F5805F016A33
:1010F0000BD04A1C0262026809785160C18C491EFB
:101100000904090CC1840ED017E009880268C1F3F4
:101110000801516001690029016A02D0491C01627D
:10112000ECE7891CFBE70168CA6822F08002CA600C
:101130000068C16841F04001C160002070472DE99E
:10114000F041984617460E460446069D1DE0681C71
:101150001BD02DB1FFF7A0F9A0EB0800A84214D9CD
:101160002068C16821F4D071C1602068416921F014
:1011700001014161202084F8390084F83A00002000
:1011800084F838000320BDE8F0812068006836EA62
:10119000000004D00020B842D9D00020F3E701209D
:1011A000F9E700000148FFF7C7BC00001800002065
:1011B000FEE700000FB4054B10B503A9044A0298DE
:1011C00000F028F810BC5DF814FB0000D5140008EE
:1011D000140000200907090E002804DB00F1E020BC
:1011E00080F80014704700F00F0000F1E02080F854
:1011F000141D704702E008C8121F08C1002AFAD166
:1012000070477047002001E001C1121F002AFBD186
:10121000704700002DE9FF4F8DB09B460F460446F6
:10122000002606E025280BD05A460F999047641CEB
:10123000761C20780028F5D111B03046BDE8F08F3B
:101240000025A8460122984900E0054314F8013F13
:10125000203B02FA03F00842F7D120782E2817D15C
:1012600014F8010F45F004052A280ED06FF02F0264
:101270002078A0F1300109290AD808EB880102EB97
:10128000410100EB0108641CF2E757F8048B641C71
:1012900020786C280DD004DC4C2812D06A2811D19B
:1012A00004E074280DD07A280CD10AE045F400152A
:1012B00007E0617845F48015814202D1641C05F590
:1012C0008015641C2278692A45D008DC002AB3D036
:1012D000582A69D0632A10D0642A08D13BE0702ACA
:1012E00067D0732A13D0752A5CD0782A5CD0104658
:1012F0005A460F999047761CD3E017F8040B8DF8E7
:10130000000000208DF80100E946012003E057F8B5
:10131000049B4FF0FF3069074FF0000501D40AE04D
:101320006D1C45450DDA8542FADB19F805100029D8
:10133000F6D106E06D1C8542FCDB19F8051000298A
:10134000F8D12E4404E019F8010B5A460F99904742
:101350006D1EF8D2A5E00A200021CDE90801C5F3F1
:10136000025002280DD001CFC117031E71F10003F6
:101370000DDA4FF0000CD0EB0C006CEB01012D23CB
:1013800008E0FF1D27F00707F7E80201EDE72B054E
:1013900004D52B238DF8283001233BE0EB0739D00F
:1013A0002023F7E70A2000E010200021CDE9080102
:1013B00007E01020002145F00405CDE908014FF0B9
:1013C0000808C5F3025002280FD001CF00214FF0CA
:1013D000000A2B071FD5702A0DD0DDE908C38CF059
:1013E000100C5CEA030C0CD015E0FF1D27F007077A
:1013F000F7E80201EBE740228DF828204FF0010AC0
:101400000BE050EA010306D030238DF828308DF828
:10141000292002239A46582A04D024A20DF120093B
:101420000B9209E026A2F9E7DDE90823FEF7CEFEDC
:101430000B9B9B5C09F8013D50EA0102F4D1ADEB36
:10144000090020300890680701D44FF0010808997E
:10145000884502DDA8EB010000E000208046002561
:1014600006E00AA85A46405D0F9990476D1C761C0D
:101470005545F6DB04E030205A460F999047761C1C
:10148000B8F10001A8F10108F5DC05E019F8010B3D
:101490005A460F999047761C0899481E08900029D3
:1014A000F4DC641CC5E60000092801003031323349
:1014B0003435363738396162636465660000000090
:1014C000303132333435363738394142434445467A
:1014D0000000000013B54FF6FF7301226946024871
:1014E000FFF725FC00981CBD18000020FEF7E2FF66
:1014F000FFF7B4FCFFF77AFCFFF78EFC0CA0FFF7B8
:1015000059FE0FA0FFF756FE124C4FF47A75207863
:10151000401CC1B221706078401CC2B262708B184E
:101520000DA0FFF747FE2846FEF7DAFEEFE70000C2
:1015300068656C6C6F20776F726C640D0A00000038
:10154000BDADCEF7BFC6BCBCCAA6B7B6B4F3D1A773
:101550000D0A000000000020613D25642C623D253D
:10156000642C612B623D25580D0A0000000000002C
:101570000000000001020304060708090000000043
:1015800001020304A4150008000000201800000058
:10159000F4110008BC1500081800002040040000E9
:1015A0000412000801020000010000001000000009
:0C15B000000000000024F4000000000017
:040000050800019559
:00000001FF
