:020000040800F2
:10000000800400209D0100084B1400089F0E00088A
:100010004914000895040008E537000800000000B6
:100020000000000000000000000000004F14000865
:1000300097040008000000004D1400085114000847
:10004000B7010008B7010008B7010008B7010008B0
:10005000B7010008B7010008B7010008B7010008A0
:10006000B7010008B7010008B7010008B701000890
:10007000B7010008B7010008B7010008B701000880
:10008000B7010008B7010008B7010008B701000870
:10009000B7010008B7010008B7010008B701000860
:1000A000B7010008B7010008B7010008B701000850
:1000B000B7010008B7010008B7010008B701000840
:1000C000B7010008B7010008B7010008B701000830
:1000D000B7010008B7010008B7010008B701000820
:1000E000B7010008B7010008B7010008B701000810
:1000F000B7010008B7010008B7010008B701000800
:10010000B7010008B7010008B7010008B7010008EF
:10011000B7010008B7010008B7010008B7010008DF
:10012000B7010008B7010008B7010008B7010008CF
:10013000B7010008B7010008B7010008B7010008BF
:10014000B7010008B7010008B7010008B7010008AF
:10015000B7010008B7010008B7010008B70100089F
:10016000B7010008B7010008B7010008B70100088F
:10017000B7010008B7010008B7010008000000003F
:10018000B7010008B7010008DFF80CD000F070F9E3
:1001900000480047253800088004002006488047B2
:1001A00006480047FEE7FEE7FEE7FEE7FEE7FEE75C
:1001B000FEE7FEE7FEE7FEE7C51400088901000838
:1001C0002DE9F05F0546002092469B46884606468C
:1001D000814640241BE0284641464746224600F01F
:1001E000D9F853465A46C01A914110D311461846C1
:1001F000224600F0C0F82D1A67EB01084F46224650
:100200000120002100F0B7F817EB00094E41201E35
:10021000A4F10104DFDC484631462A464346BDE8E6
:10022000F09FD2B201E000F8012B491EFBD27047CB
:100230000022F6E710B513460A4604461946FFF7B2
:10024000F0FF204610BD2DE9FE4F81EA030404F0C3
:10025000004421F0004100944FF0000B23F00043D4
:1002600050EA01045ED052EA03045BD0C3F30A549F
:10027000C1F30A552C44A4F2F3340194A0FB0254B8
:10028000C1F3130141F48011C3F3130343F480134A
:1002900001FB024400FB034E840A970A44EA81549E
:1002A00047EA8357A4FB076802958D0A05FB07857B
:1002B0004FEA932C04FB0C542705029D4FEA065885
:1002C00047EA1637B5EB08056EEB070C870E920E62
:1002D00047EA811742EA8312A7FB0201B6EB0B0142
:1002E00064EB00042B0D43EA0C335E1844EB1C5006
:1002F000DA465146E7FB0201C5F313044FEA0B331C
:1003000043EA14534FEA0432019C43EA0603A4F182
:100310000C040294009CCDE900B400F05AF803B03C
:10032000BDE8F08F00200146F9E70EB540F23341F9
:1003300002910021CDE900110A460B4600F049F870
:1003400003B000BDC1F30A5210B5C1F3130140F26E
:10035000FF3341F480119A4201DA002010BD40F2CF
:1003600033439A42A2F2334203DC524200F012F8C5
:1003700010BD904010BD202A04DB203A00FA02F1A3
:10038000002070479140C2F1200320FA03F3194383
:1003900090407047202A04DB203A21FA02F0002125
:1003A000704721FA02F3D040C2F120029140084385
:1003B0001946704710B5141E73F1000408DA401C8A
:1003C00041F1000192185B411A4301D120F0010074
:1003D00010BD2DE9F04D92469B4611B1B1FA81F264
:1003E00002E0B0FA80F220329046FFF7C4FF0446E4
:1003F0000F4640EA0A0041EA0B0153465A460843B9
:1004000013D0114653EA010019D0C8F140025046FA
:10041000FFF7C0FF05460E46504659464246FFF7D5
:10042000AAFF084305D0012004E020463946BDE874
:10043000F08D0020054346EAE0762C4337430A98C6
:100440006305E40AA0EB08000022FD0A44EA4754D1
:100450000A3002D500200146E9E70105101969417B
:10046000DDE9084500196941BDE8F04DA2E700004B
:10047000064C074D06E0E06840F0010394E80700F1
:1004800098471034AC42F6D3FFF782FEC84000080C
:10049000E8400008FEE770477047000070B5B3F50C
:1004A000804F05D06FF0704140F82210002070BDE1
:1004B00050F82240084B8E891C40D1E9003543EAB0
:1004C00005138D6889692D0245EA06452B430B43C8
:1004D000234340F82230E9E70000F0CFF0B50C6884
:1004E00050F82430114A1340D1E90125D1E90367BE
:1004F0002A433E4332434E6932438E693243CE69CA
:1005000032430E6A32434E6A32438E6A3243CE6AB7
:100510003243CE6B096B32430A431A43082D01D193
:1005200042F0400240F824200020F0BD8000F0FF9F
:1005300030B500EB820250688D8900F04043D1E96C
:10054000000440EA04108C68240244EA0544204375
:100550000C8A074D05EB045420430C7D6D0105EB1F
:10056000046489692043084318435060002030BD6B
:100570000000F0FF70B5044600F044F90546601C29
:1005800002D004480078044400F03CF9401BA0422B
:10059000FAD370BD100000202DE9F04186B014217F
:1005A0006846FFF745FE20480168002939D101213E
:1005B00001601E480024016841F0010101600068EB
:1005C0004FF4805800F001000C27CDF80080CDE9F1
:1005D0000470032602250396CDE9015469461448A8
:1005E00000F02EF84FF68070CDE9000502AA6946AA
:1005F00082E8D0000F4800F023F84CF23370CDE9C8
:10060000000502AA694682E8D0000B4800F018F8FD
:1006100002AA694682E8D000CDE90085074800F0CB
:100620000FF806B0BDE8F081000000203838024025
:100630000014024000100240000C0240001802406A
:100640002DE9F84F00224FF0010803254FF00F0E5F
:100650000B6808FA02F42340A3426ED14E68012EC3
:1006600005D0022E03D0112E01D0122E12D1866891
:100670004FEA420C05FA0CF7BE43CF6807FA0CF7B5
:10068000374387604668A6430C79C4F3001494404E
:1006900034434460C668570005FA07FC8C6826EAB4
:1006A0000C06BC403443C4604C68022C01D0122CB0
:1006B00013D1D40800EB8404A346D4F82090540747
:1006C0004FEAD46A0EFA0AF629EA06090E6906FA12
:1006D0000AF646EA0906CBF8206006680C7926EA95
:1006E0000C0604F00304BC40344304604C68E4008E
:1006F00065D5364C266846F480462660246822F08C
:10070000030604F480440094314C3444A446D4F8E5
:1007100008489607370F0EFA07F6B4432D4EB0423D
:1007200001D1002624E02C4EB04201D101261FE069
:100730002A4EB04202D102261AE040E0284EB042D2
:1007400001D1032614E0274EB04201D104260FE068
:10075000254EB04201D105260AE0244EB04201D117
:10076000062605E0224EB04201D1072600E0082609
:10077000BE402643CCF808681E4E34684F689C4340
:10078000FF0300D51C4334601A4C241D26684F68B3
:100790009E43BF0300D51E432660164E08363468BC
:1007A0004F689C43FF0200D51C433460114E0C3649
:1007B00034684F689C43BF0200D51C433460521C10
:1007C000102AFFF445AFBDE8F88F0000443802401E
:1007D00000300140000002400004024000080240D6
:1007E000000C0240001002400014024000180240B9
:1007F000001C0240003C01400AB1816170470904BD
:10080000FBE70000014880687047000010000020EE
:10081000024881680278114481607047100000200E
:100820000B4810B5016841F400710160016841F4A2
:1008300080610160016841F480710160032000F073
:1008400061F8002000F006F800F024F8002010BD48
:10085000003C024070B50D4D04464FF47A71287883
:10086000B1FBF0F00A490968B1FBF0F000F003FBBE
:1008700048B9102C07D200222146501E00F022F861
:1008800000206C6070BD012070BD000010000020D1
:100890001C0000200A4808B5016841F4804101604D
:1008A000006800F4804000900548001F016841F096
:1008B00080510160006800F08050009008BD000089
:1008C00044380240F0B40E4B1B680C46C3F30223BD
:1008D000C3F10705042D00D90425191D072901D2EC
:1008E000002300E0DB1E012606FA05F1491E214027
:1008F00099409E40761E16403143F0BC02F073BF13
:100900000CED00E0064900F0070208684FF6FF030F
:10091000184040EA0220034A104308607047000074
:100920000CED00E00000FA052DE9F0470E46050049
:1009300065D0DFF81481D8F80000F7B200F00F009E
:10094000B04207D288F80070D8F8000000F00F001D
:10095000B04254D128683D4C810712D5400703D5D9
:10096000206840F4E05020602878000703D5206814
:1009700040F4604020602068A96820F0F00008433F
:1009800020602878C0072DD03049686808390128D0
:1009900012D0022813D0032811D009688907002932
:1009A0002DDA216821F0030101432160FFF72AFFBE
:1009B000814641F2883A0EE009688903EFE7096849
:1009C0008901ECE7FFF71EFFA0EB0901514502D9B1
:1009D0000320BDE8F0872068696800F00C00B0EBE8
:1009E000810FEFD1D8F80010404601F00F01B1425D
:1009F00007D90770006800F00F00B04201D0012055
:100A0000E7E72878400705D52068E96820F4E0503A
:100A1000084320602878000706D52068296920F45B
:100A2000604040EAC100206000F018F82168084AE0
:100A3000C1F30311515CC8400649086006480068CC
:100A4000FFF708FF0020C4E7003C024008380240DE
:100A5000B84000081C00002014000020154810B504
:100A6000006810F00C02144813D01449042A0FD067
:100A7000082A0ED10F4C241F2268236802F03F027F
:100A80005B0207D52068C0F38810A0FB010106E0D7
:100A9000084610BD2168C1F38811A1FB00010023A5
:100AA000FFF78EFB2168C1F30141491C4900B0FBEF
:100AB000F1F010BD083802400024F40040787D01B8
:100AC0002DE9F84F04006ED02078DFF83C93C00782
:100AD000A9F104054AD009F104000168C1F38101BC
:100AE000012908D00068C0F3810002280AD1D9F892
:100AF0000000400206D52868800337D560680028CA
:100B0000E1D033E06068B0F5803F10D0B0F5A02FA1
:100B1000286810D020F480302860286820F48020D5
:100B200028606068A8B1FFF76DFE06460DE02868F2
:100B300040F48030F4E740F480202860F7E700BFFD
:100B4000FFF760FE801B642873D828688003F7D500
:100B50000CE0FFF757FE064605E000BFFFF752FE28
:100B6000801B6428F0D828688003F7D42078DFF849
:100B70009C8280074FF0000A3ED5A348001D016803
:100B800011F00C0F08D00068C0F3810002280BD1CF
:100B9000D9F80000400207D42868800716D5E0681D
:100BA000012800D112E02BE1E068B8B10120C8F8BB
:100BB0000000FFF727FE064605E000BFFFF722FE14
:100BC000801B0228C0D828688007F7D528682169CB
:100BD00020F0F80040EAC10028600DE0C8F800A04D
:100BE000FFF710FE064604E0FFF70CFE801B02280C
:100BF0001FD828688007F7D42078000722D5824EB6
:100C000083486169703671B101210160FFF7FAFD17
:100C1000074604E0FFF7F6FDC01B022809D830683C
:100C20008007F7D50EE0C0F800A0FFF7EBFD074600
:100C300005E082E0FFF7E6FDC01B02287DD83068A2
:100C40008007F7D42078400768D5DFF8BCB10027CB
:100C50000BF13C0BDBF80000C0000BD4DBF80010FC
:100C600041F08051CBF80010DBF80000012700F0C4
:100C700080500090674E3068C00510D4306840F452
:100C800080703060FFF7BEFD009005E0FFF7BAFD11
:100C90000099401A022850D83068C005F6D55A4E3F
:100CA000A0686C3601280FD00528306810D020F0DD
:100CB00001003060306820F004003060A068B8B1F6
:100CC000FFF7A0FD00900FE0306840F00100F4E76E
:100CD00040F004003060F7E7FFF794FD0099411AF7
:100CE00041F28830814266D830688007F4D50EE042
:100CF000FFF788FD009007E0FFF784FD0099411A97
:100D000041F28830814256D830688007F4D42FB140
:100D1000DBF8001021F08051CBF80010A069C8B3B7
:100D20003949091D0968C1F3810102294AD0022805
:100D3000504607D0C8F8600000E03CE0FFF762FDD5
:100D400004463BE04746C8F86000FFF75BFD0646F7
:100D500005E000BFFFF756FD801B02282BD828684E
:100D60008001F7D4D4E907010843A16A2A4A490857
:100D700002EB0141626A41EA8211084394F82C10A7
:100D800040EA0161C9F8001001203866FFF73AFD1A
:100D9000044606E036E000BFFFF734FD001B0228E2
:100DA00009D828688001F7D52CE000BFFFF72AFD9D
:100DB000001B022802D90320BDE8F88F28688001B3
:100DC000F4D41FE00128F7D0D9F80000E26900F45C
:100DD0008001914214D1226A00F03F0191420FD16B
:100DE00047F6C071626A0140914209D1A26A00F4DB
:100DF0004031914204D1E16A00F07060884201D034
:100E00000120D9E70020D7E704380240000047421C
:100E1000800E4742007000400000FFFF70B515468D
:100E20000E46040003D094F8490010B107E00120F9
:100E300070BD002084F84800204600F01AF804F144
:100E400008012068FFF74AFB3146A2682068FFF7D7
:100E50006FFBD4E901022946236BFFF71FFBA16852
:100E6000206850F8212042F0010240F821200020A3
:100E700070BDFFF791BB10B5401EB0F1807F01D36C
:100E8000012010BD4FF0E02460610F21601702F0D7
:100E9000AAFC0020A06107202061002010BDFEE711
:100EA00070B50B490646002408884D882146454305
:100EB000204600F097F900F02FFAB0B24FF0D84179
:100EC00003E000BFA1F88000641CAC42FAD370BDFF
:100ED000700000202DE9F04F33492C240A46887118
:100EE0002A2592882B2645F2105B4FF4305E4FF492
:100EF00048774FF0F00949F2413A4FF4A07845F2B3
:100F0000103C4FF4F07358B1A1F80080A1F80290A2
:100F1000524501D0624529D10C814D818E8139E045
:100F2000A1F80090A1F80280524501D0624508D195
:100F30000C814D818E81624531D1A1F800804B80BA
:100F40002DE05A4508D1A1F808E04FF42850488117
:100F50004FF42C50888106E0A2F5C85063381ED1AA
:100F60000C814E818D810B804F8018E05A4508D14D
:100F7000A1F808E04FF4285048814FF42C508881A4
:100F800006E0A2F5C850633804D10C814D818E81F2
:100F90000F804B80624502D10B80A1F80280BDE832
:100FA000F04F002000F042B87000002000B500F0C3
:100FB00019F900F0B1F903484FF0D8410088A1F8C1
:100FC000800000BD0800002008B54FF0D840B0F800
:100FD0008000ADF80000BDF8000008BD10B5024665
:100FE000BE2000F08DF9052000F07EF91046FFF7D5
:100FF0009CF99FED0C1B53EC112BFFF724F9FFF725
:10100000A1F980B200F070F9012000F06DF9FF2025
:1010100000F06AF9002000F067F9BDE810400020F8
:1010200000F062B96666666666660440F0B56C4CB0
:1010300000232146A279898841F66316012A01D04E
:101040001AB11BE0B14202D118E0B14216D1082812
:1010500014D2DFE800F00406080A0C0E1012062075
:101060000CE007200AE0042008E0052006E001204B
:1010700004E0002002E0032000E00220A1F5134775
:1010800045F2103245F21055413F05D0914203D050
:10109000A94201D0B14277D1082812D2DFE800F08E
:1010A000110406080A0C0E1080230AE0402308E011
:1010B000C02306E0202304E0602302E0A02300E038
:1010C000E023A94202D14FF4585000E0362091426B
:1010D00005D0A94203D0B14201D043F0080319461C
:1010E00000F024F9A188B1420AD0980620886288CD
:1010F00002D5904202D303E0904201D92280608061
:101100006089A94241D100F0FBF8002000F0ECF822
:101110006089401C80B200F0F3F8002000F0E4F891
:101120006089801C80B200F0EBF82088401EC0F37C
:101130000F2000F0D9F86089C01C80B200F0E0F800
:101140002078401EC0B200F0CFF8A08900F0D8F897
:10115000002000F0C9F8A089401C80B200F0D0F84F
:10116000002000F0C1F8A089801C80B200F0C8F80F
:101170006088401EC0F30F2000F0B6F8A089C01CA4
:1011800080B200F0BDF822E028E000F0B9F80020BD
:1011900000F0AAF8002000F0A7F82088401EC0F355
:1011A0000F2000F0A1F82078401EC0B200F09CF89B
:1011B000A08900F0A5F8002000F096F8002000F0CB
:1011C00093F86088401EC0F30F2000F08DF8A078DF
:1011D000BDE8F040401EC0B200F086B8F0BD00008F
:1011E00070000020F0B53F4A0D460446060A91887B
:1011F00010462F0A4089A1F51343413B28D0A1F5A1
:10120000A643103B24D0A1F5C853633B2FD0A1F5D2
:10121000AA43103B64D100F073F8304600F064F844
:101220005089401C80B200F06BF8E0B200F05CF82E
:10123000908900F065F8384600F056F89089401C17
:1012400080B200F05DF8E8B2BDE8F04000F04CB8C4
:1012500000F056F8304600F047F8E0B200F044F8ED
:10126000908900F04DF8384600F03EF8EBE79179B0
:1012700029B300F045F8304600F036F8E0B200F04F
:1012800033F81088401EC0F30F2000F02DF81078BE
:10129000401EC0B200F028F8908900F031F83846BE
:1012A00000F022F8E8B200F01FF85088401EC0F3AA
:1012B0000F2000F019F89078401EC0B2C4E71188E2
:1012C000091B491E8CB200F01BF8002000F00CF83E
:1012D000002000F009F8200A00F006F8E0B2D9E793
:1012E000F0BD00007000002001B5BDF80000ADF8B1
:1012F0000000BDF800004FF0D841A1F8800008BD03
:1013000001B5BDF80000ADF80000BDF800004FF0D9
:10131000D841A1F87E0008BD03484FF0D8410089AC
:10132000A1F87E0070470000700000204FF0D84206
:1013300022F87E0F5180704700B587B01C216846A7
:10134000FEF776FF16484FF0204110220160154944
:101350004160062181600021C160C0E90412816101
:10136000C16113020162C0E90913C16201634163F3
:10137000816341640F20FF230090CDE90103CDE993
:1013800003021120CDE90501002269460448FFF758
:1013900045FD002801D0FFF77FF807B000BD000031
:1013A00020000020040100A030B587B01421684659
:1013B000FEF73EFF2248016841F0800101600168AC
:1013C00001F080010591016841F020010160016890
:1013D00001F020010591016841F0100101600168F0
:1013E00001F010010591016841F0020101600168FE
:1013F00001F002010591016841F0080101600168F6
:1014000001F008010591016841F0400101600068A8
:101410000C4D00F040004FF400440590002221469E
:101420002846FFF7E9F901210220CDE90210CDE9B4
:10143000004169462846FFF703F907B030BD0000B8
:101440003038024000040240FEE7704770477047A2
:10145000FFF7DEB910B592B030216846FEF7E8FE1E
:1014600014210CA8FEF7E4FE14480024016841F0A2
:1014700080510160006800F08050119010480168B0
:1014800041F4804101600068069400F480401190AE
:101490000220009001200390102004906846FFF77E
:1014A0000FFB0F20CDE90C040E940F9400210CA823
:1014B0001094FFF739FA12B010BD00004038024016
:1014C000007000400548016841F470010160034963
:1014D0004FF00060803908607047000088ED00E040
:1014E0002DE9F05F3220FFF745F8D320FFF708FF22
:1014F000FFF76AFDFE4CA080FFF766FDA080FFF7B6
:1015000063FD4FF6FF7909EA0020A080FFF75CFD3C
:10151000A18849F241360843A08045F2103745F2D0
:10152000105541F66318B04247D0D420FFF7E8FECB
:10153000FFF74AFDA080FFF747FDA080FFF744FDBD
:1015400009EA00204A46A080FFF73EFDA188084333
:10155000A080B84231D04FF45A40FFF7D1FEFFF7D8
:1015600033FDA0804FF45B40FFF7CAFEFFF72CFD70
:1015700002EA0020A0804FF45C40FFF7C1FEFFF7B5
:1015800023FDA1880843A080B0F5004F7DD0A8427C
:1015900013D0A120FFF7B4FEFFF716FDA080FFF7E0
:1015A00013FD02EA0020A080FFF70EFDA18808438A
:1015B000A0F5AE41A080613968D080B2B04266D15A
:1015C000CF20FFF79DFE0020FFF78EFEC120FFF722
:1015D0008BFE3020FFF788FEED20FFF791FE6420A0
:1015E000FFF782FE0320FFF77FFE1220FFF77CFE4D
:1015F0008120FFF779FEE820FFF782FE8520FFF7C4
:1016000073FE1020FFF770FE7A20FFF76DFECB20EF
:10161000FFF776FE3920FFF767FE2C20FFF764FE08
:101620000020FFF761FE3420FFF75EFE0220FFF787
:101630005BFEF720FFF764FE2020FFF755FEEA204F
:10164000FFF75EFE0020FFF74FFE0020FFF74CFE85
:10165000C020FFF755FE1B20FFF746FEC120FFF715
:101660004FFE0120FFF740FEC520FFF749FE302066
:10167000FFF73AFE3020FFF737FEC720FFF740FEA6
:10168000B720FFF731FE362002E0B5E0B0E0B5E06C
:10169000FFF736FE4820FFF727FE3A20FFF730FE1F
:1016A0005520FFF721FEB120FFF72AFE0020FFF7AB
:1016B0001BFE1A20FFF718FEB620FFF721FE0A20B6
:1016C000FFF712FEA220FFF70FFEF220FFF718FE31
:1016D0000020FFF709FE2620FFF712FE0120FFF78A
:1016E00003FEE020FFF70CFE0F20FFF7FDFD2A2090
:1016F000FFF7FAFD2820FFF7F7FD0820FFF7F4FDBC
:101700000E20FFF7F1FD0820FFF7EEFD5420FFF754
:10171000EBFDA920FFF7E8FD4320FFF7E5FD0A20D8
:10172000FFF7E2FD0F20FFF7DFFD0020FFF7DCFDF4
:101730000020FFF7D9FD0020FFF7D6FD0020FFF7BE
:10174000D3FDE120FFF7DCFD0020FFF7CDFD1520E4
:10175000FFF7CAFD1720FFF7C7FD0720FFF7C4FDFD
:101760001120FFF7C1FD0620FFF7BEFD2B20FFF77C
:10177000BBFD5620FFF7B8FD3C20FFF7B5FD052067
:10178000FFF7B2FD1020FFF7AFFD0F20FFF7ACFD14
:101790003F20FFF7A9FD3F20FFF7A6FD0F20FFF731
:1017A000A3FD2B20FFF7ACFD0020FFF79DFD0020DF
:1017B000FFF79AFD0120FFF797FD3F20FFF794FD0B
:1017C0002A20FFF79DFD0020FFF78EFD0020FFF788
:1017D0008BFD0020FFF788FDEF20FFF785FD11202E
:1017E000FFF78EFD7820FEF7C5FE292001F009BF26
:1017F000A4F8048001F00ABFA580FDE3B84276D1C9
:10180000ED20FFF77DFD0120FFF76EFDFE20FFF7C5
:101810006BFDEE20FFF774FDDE20FFF765FD212054
:10182000FFF762FDF120FFF76BFD0120FFF75CFD84
:10183000DF20FFF765FD1020FFF756FDC420FFF7FE
:101840005FFD8F20FFF750FDC620FFF759FD0020F8
:10185000FFF74AFDE220FFF747FDE220FFF744FDD6
:10186000E220FFF741FDBF20FFF74AFDAA20FFF766
:101870003BFDB020FFF744FD0D20FFF735FD0020B4
:10188000FFF732FD0D20FFF72FFD0020FFF72CFDA5
:101890001120FFF729FD0020FFF726FD1920FFF793
:1018A00023FD0020FFF720FD2120FFF71DFD002074
:1018B000FFF71AFD2D20FFF717FD0020FFF714FD9D
:1018C0003D20FFF711FD0020FFF70EFD5D20FFF723
:1018D0000BFD0020FFF708FD5D20FFF705FD002050
:1018E000FFF702FDB120FFF70BFD802002E0FDE3D2
:1018F00070000020FFF7F8FC0020FFF7F5FC8B20BC
:10190000FFF7F2FC0020FFF7EFFC9620FFF7ECFC5E
:101910000020FFF7E9FCB220FFF7F2FC0020FFF700
:10192000E3FC0020FFF7E0FC0220FFF7DDFC0020D5
:10193000FFF7DAFC0320FFF7D7FC0020FFF7D4FC09
:10194000B320FFF7DDFC0020FFF7CEFC0020FFF7FF
:10195000CBFC0020FFF7C8FC0020FFF7C5FC0020EF
:10196000FFF7C2FC0020FFF7BFFC0020FFF7BCFC24
:101970000020FFF7B9FC0020FFF7B6FC0020FFF7BE
:10198000B3FC0020FFF7B0FC0020FFF7ADFC002007
:10199000FFF7AAFC0020FFF7A7FC0020FFF7A4FC3C
:1019A0000020FFF7A1FC0020FFF79EFC0020FFF7BE
:1019B0009BFC0020FFF798FC0020FFF795FC00201F
:1019C000FFF792FC0020FFF78FFC0020FFF78CFC54
:1019D0000020FFF789FCB420FFF792FC8B20FFF773
:1019E00083FC0020FFF780FC9620FFF77DFC0020A1
:1019F000FFF77AFCA120FFF777FC0020FFF774FCCB
:101A0000B520FFF77DFC0220FFF76EFC0020FFF7FA
:101A10006BFC0320FFF768FC0020FFF765FC042047
:101A2000FFF762FC0020FFF75FFCB620FFF768FCC1
:101A30000020FFF759FC0020FFF756FCB720FFF706
:101A40005FFC0020FFF750FC0020FFF74DFC3F201B
:101A5000FFF74AFC0020FFF747FC5E20FFF744FC3D
:101A60000020FFF741FC6420FFF73EFC0020FFF759
:101A70003BFC8C20FFF738FC0020FFF735FCAC2046
:101A8000FFF732FC0020FFF72FFCDC20FFF72CFCD7
:101A90000020FFF729FC7020FFF726FC0020FFF74D
:101AA00023FC9020FFF720FC0020FFF71DFCEB201B
:101AB000FFF71AFC0020FFF717FCDC20FFF714FCEF
:101AC0000020FFF711FCB820FFF71AFC0020FFF7F9
:101AD0000BFC0020FFF708FC0020FFF705FC0020AE
:101AE000FFF702FC0020FFF7FFFB0020FFF7FCFBE5
:101AF0000020FFF7F9FB0020FFF7F6FBBA20FFF705
:101B0000FFFB2420FFF7F0FB0020FFF7EDFB002098
:101B1000FFF7EAFB0020FFF7E7FBC120FFF7F0FB30
:101B20002020FFF7E1FB0020FFF7DEFB5420FFF74A
:101B3000DBFB0020FFF7D8FBFF20FFF7D5FB0020E1
:101B4000FFF7D2FBC220FFF7DBFB0A20FFF7CCFB3D
:101B50000020FFF7C9FB0420FFF7C6FB0020FFF7BA
:101B6000C3FBC320FFF7CCFB3C20FFF7BDFB0020ED
:101B7000FFF7BAFB3A20FFF7B7FB0020FFF7B4FBF3
:101B80003920FFF7B1FB0020FFF7AEFB3720FFF74E
:101B9000ABFB0020FFF7A8FB3C20FFF7A5FB0020D4
:101BA000FFF7A2FB3620FFF79FFB0020FFF79CFB0F
:101BB0003220FFF799FB0020FFF796FB2F20FFF75D
:101BC00093FB0020FFF790FB2C20FFF78DFB0020FC
:101BD000FFF78AFB2920FFF787FB0020FFF784FB34
:101BE0002620FFF781FB0020FFF77EFB2420FFF774
:101BF0007BFB0020FFF778FB2420FFF775FB00201C
:101C0000FFF772FB2320FFF76FFB0020FFF76CFB51
:101C10003C20FFF769FB0020FFF766FB3620FFF74B
:101C200063FB0020FFF760FB3220FFF75DFB002025
:101C3000FFF75AFB2F20FFF757FB0020FFF754FB5D
:101C40002C20FFF751FB0020FFF74EFB2920FFF768
:101C50004BFB0020FFF748FB2620FFF745FB002049
:101C6000FFF742FB2420FFF73FFB0020FFF73CFB80
:101C70002420FFF739FB0020FFF736FB2320FFF776
:101C800033FB0020FFF730FBC420FFF739FB622055
:101C9000FFF72AFB0020FFF727FB0520FFF724FBB7
:101CA0000020FFF721FB8420FFF71EFB0020FFF739
:101CB0001BFBF020FFF718FB0020FFF715FB182097
:101CC000FFF712FB0020FFF70FFBA420FFF70CFB30
:101CD0000020FFF709FB1820FFF706FB0020FFF7A5
:101CE00003FB5020FFF700FB0020FFF7FDFA0C205C
:101CF000FFF7FAFA0020FFF7F7FA1720FFF7F4FAD8
:101D00000020FFF7F1FA9520FFF7EEFA0020FFF729
:101D1000EBFAF320FFF7E8FA0020FFF7E5FAE620F8
:101D2000FFF7E2FA0020FFF7DFFAC520FFF7E8FA35
:101D30003220FFF7D9FA0020FFF7D6FA4420FFF748
:101D4000D3FA0020FFF7D0FA6520FFF7CDFA002084
:101D5000FFF7CAFA7620FFF7C7FA0020FFF7C4FAA8
:101D60008820FFF7C1FA0020FFF7BEFAC620FFF770
:101D7000C7FA2020FFF7B8FA0020FFF7B5FA1720BE
:101D8000FFF7B2FA0020FFF7AFFA0120FFF7ACFA35
:101D90000020FFF7A9FAC720FFF7B2FA0020FFF7EB
:101DA000A3FA0020FFF7A0FA0020FFF79DFA002019
:101DB000FFF79AFAC820FFF7A3FA0020FFF794FA7A
:101DC0000020FFF791FA0020FFF78EFA0020FFF7BE
:101DD0008BFAC920FFF794FA0020FFF785FA00205C
:101DE000FFF782FA0020FFF77FFA0020FFF77CFA66
:101DF0000020FFF779FA0020FFF776FA0020FFF7BE
:101E000073FA0020FFF770FA0020FFF76DFA002048
:101E1000FFF76AFA0020FFF767FA0020FFF764FA7D
:101E20000020FFF761FA0020FFF75EFA0020FFF7BD
:101E30005BFA0020FFF758FAE020FFF761FA16205E
:101E4000FFF752FA0020FFF74FFA1C20FFF74CFA79
:101E50000020FFF749FA2120FFF746FA0020FFF79C
:101E600043FA3620FFF740FA0020FFF73DFA4620FC
:101E7000FFF73AFA0020FFF737FA5220FFF734FA5B
:101E80000020FFF731FA6420FFF72EFA0020FFF759
:101E90002BFA7A20FFF728FA0020FFF725FA8B208B
:101EA000FFF722FA0020FFF71FFA9920FFF71CFA2C
:101EB0000020FFF719FAA820FFF716FA0020FFF715
:101EC00013FAB920FFF710FA0020FFF70DFAC4202B
:101ED000FFF70AFA0020FFF707FACA20FFF704FA13
:101EE0000020FFF701FAD220FFF7FEF90020FFF7EC
:101EF000FBF9D920FFF7F8F90020FFF7F5F9E0200A
:101F0000FFF7F2F90020FFF7EFF9F320FFF7ECF904
:101F10000020FFF7E9F9E120FFF7F2F91620FFF7BB
:101F2000E3F90020FFF7E0F91C20FFF7DDF90020BE
:101F3000FFF7DAF92220FFF7D7F90020FFF7D4F9ED
:101F40003620FFF7D1F90020FFF7CEF94520FFF743
:101F5000CBF90020FFF7C8F95220FFF7C5F90020A0
:101F6000FFF7C2F96420FFF7BFF90020FFF7BCF9C3
:101F70007A20FFF7B9F90020FFF7B6F98B20FFF7B9
:101F8000B3F90020FFF7B0F99920FFF7ADF9002071
:101F9000FFF7AAF9A820FFF7A7F90020FFF7A4F997
:101FA000B920FFF7A1F90020FFF79EF9C420FFF741
:101FB0009BF90020FFF798F9CA20FFF795F9002058
:101FC000FFF792F9D220FFF78FF90020FFF78CF985
:101FD000D820FFF789F90020FFF786F9E020FFF706
:101FE00083F90020FFF780F9F320FFF77DF9002047
:101FF000FFF77AF9E22000E082E3FFF781F905209C
:10200000FFF772F90020FFF76FF90B20FFF76CF96B
:102010000020FFF769F91B20FFF766F90020FFF7A2
:1020200063F93420FFF760F90020FFF75DF94420E1
:10203000FFF75AF90020FFF757F94F20FFF754F93F
:102040000020FFF751F96120FFF74EF90020FFF75C
:102050004BF97920FFF748F90020FFF745F9882070
:10206000FFF742F90020FFF73FF99720FFF73CF90F
:102070000020FFF739F9A620FFF736F90020FFF717
:1020800033F9B720FFF730F90020FFF72DF9C22010
:10209000FFF72AF90020FFF727F9C720FFF724F9F7
:1020A0000020FFF721F9D120FFF71EF90020FFF7EC
:1020B0001BF9D620FFF718F90020FFF715F9DD20EE
:1020C000FFF712F90020FFF70FF9F320FFF70CF9E3
:1020D0000020FFF709F9E320FFF712F90520FFF7C9
:1020E00003F90020FFF700F90A2000E006E3FFF7FC
:1020F000FBF80020FFF7F8F81C20FFF7F5F80020A8
:10210000FFF7F2F83320FFF7EFF80020FFF7ECF8C5
:102110004420FFF7E9F80020FFF7E6F85020FFF72A
:10212000E3F80020FFF7E0F86220FFF7DDF8002079
:10213000FFF7DAF87820FFF7D7F80020FFF7D4F898
:102140008820FFF7D1F80020FFF7CEF89720FFF79F
:10215000CBF80020FFF7C8F8A620FFF7C5F800204D
:10216000FFF7C2F8B720FFF7BFF80020FFF7BCF871
:10217000C220FFF7B9F80020FFF7B6F8C720FFF735
:10218000B3F80020FFF7B0F8D120FFF7ADF800203A
:10219000FFF7AAF8D520FFF7A7F80020FFF7A4F86B
:1021A000DD20FFF7A1F80020FFF79EF8F320FFF7EE
:1021B0009BF80020FFF798F8E420FFF7A1F8012032
:1021C000FFF792F80020FFF78FF80120FFF78CF857
:1021D0000020FFF789F80220FFF786F80020FFF7BC
:1021E00083F82A20FFF780F80020FFF77DF83C20D5
:1021F000FFF77AF80020FFF777F84B20FFF774F825
:102200000020FFF771F85D20FFF76EF80020FFF760
:102210006BF87420FFF768F80020FFF765F884205A
:10222000FFF762F80020FFF75FF89320FFF75CF8F4
:102230000020FFF759F8A220FFF756F80020FFF71B
:1022400053F8B320FFF750F80020FFF74DF8BE20F9
:10225000FFF74AF80020FFF747F8C420FFF744F8DB
:102260000020FFF741F8CD20FFF73EF80020FFF7F0
:102270003BF8D320FFF738F80020FFF735F8DD20D2
:10228000FFF732F80020FFF72FF8F320FFF72CF8C4
:102290000020FFF729F8E520FFF732F80020FFF7CC
:1022A00023F80020FFF720F80020FFF71DF800209A
:1022B000FFF71AF80220FFF717F80020FFF714F8CD
:1022C0002920FFF711F80020FFF70EF83C20FFF758
:1022D0000BF80020FFF708F84B20FFF705F8002067
:1022E000FFF702F85D20FEF7FFFF0020FEF7FCFF7E
:1022F0007420FEF7F9FF0020FEF7F6FF8420FEF7BA
:10230000F3FF0020FEF7F0FF9320FEF7EDFF002023
:10231000FEF7EAFFA220FEF7E7FF0020FEF7E4FF4A
:10232000B320FEF7E1FF0020FEF7DEFFBE20FEF740
:10233000DBFF0020FEF7D8FFC420FEF7D5FF00200A
:10234000FEF7D2FFCD20FEF7CFFF0020FEF7CCFF37
:10235000D320FEF7C9FF0020FEF7C6FFDC20FEF702
:10236000C3FF0020FEF7C0FFF320FEF7BDFF0020F3
:10237000FEF7BAFFE620FEF7C3FF1120FEF7B4FF19
:102380000020FEF7B1FF3420FEF7AEFF0020FEF77D
:10239000ABFF5620FEF7A8FF0020FEF7A5FF762032
:1023A000FEF7A2FF0020FEF79FFF7720FEF79CFFBD
:1023B0000020FEF799FF6620FEF796FF0020FEF74B
:1023C00093FF8820FEF790FF0020FEF78DFF9920F5
:1023D000FEF78AFF0020FEF787FFBB20FEF784FF91
:1023E0000020FEF781FF9920FEF77EFF0020FEF718
:1023F0007BFF6620FEF778FF0020FEF775FF552073
:10240000FEF772FF0020FEF76FFF5520FEF76CFF0E
:102410000020FEF769FF4520FEF766FF0020FEF76B
:1024200063FF4320FEF760FF0020FEF75DFF4420BE
:10243000FEF75AFF0020FEF757FFE720FEF760FF88
:102440003220FEF751FF0020FEF74EFF5520FEF729
:102450004BFF0020FEF748FF7620FEF745FF0020E7
:10246000FEF742FF6620FEF73FFF0020FEF73CFF2D
:102470006720FEF739FF0020FEF736FF6720FEF7E2
:1024800033FF0020FEF730FF8720FEF72DFF0020EE
:10249000FEF72AFF9920FEF727FF0020FEF724FF12
:1024A000BB20FEF721FF0020FEF71EFF9920FEF75C
:1024B0001BFF0020FEF718FF7720FEF715FF002016
:1024C000FEF712FF4420FEF70FFF0020FEF70CFF7F
:1024D0005620FEF709FF0020FEF706FF2320FEF737
:1024E00003FF0020FEF700FF3320FEF7FDFE002073
:1024F000FEF7FAFE4520FEF7F7FE0020FEF7F4FE99
:10250000E820FEF7FDFE0020FEF7EEFE0020FEF7BD
:10251000EBFE9920FEF7E8FE0020FEF7E5FE87209F
:10252000FEF7E2FE0020FEF7DFFE8820FEF7DCFE6D
:102530000020FEF7D9FE7720FEF7D6FE0020FEF73A
:10254000D3FE6620FEF7D0FE0020FEF7CDFE8820E9
:10255000FEF7CAFE0020FEF7C7FEAA20FEF7C4FE63
:102560000020FEF7C1FEBB20FEF7BEFE0020FEF7F6
:10257000BBFE9920FEF7B8FE0020FEF7B5FE6620F0
:10258000FEF7B2FE0020FEF7AFFE5520FEF7ACFED0
:102590000020FEF7A9FE5520FEF7A6FE0020FEF75C
:1025A000A3FE4420FEF7A0FE0020FEF79DFE44207F
:1025B000FEF79AFE0020FEF797FE5520FEF794FEE8
:1025C0000020FEF791FEE920FEF79AFEAA20FEF712
:1025D0008BFE0020FEF788FE0020FEF785FE00201F
:1025E000FEF782FE0020FEF78BFEAA20FEF77CFE9F
:1025F000CF20FEF785FE0020FEF776FE0020FEF7D6
:1026000073FE0020FEF770FE0020FEF76DFE002036
:10261000FEF76AFE0020FEF767FE0020FEF764FE6C
:102620000020FEF761FE0020FEF75EFE0020FEF7B0
:102630005BFE0020FEF758FE0020FEF755FE00204E
:10264000FEF752FE0020FEF74FFE0020FEF74CFE84
:102650000020FEF749FE0020FEF746FEF020FEF7C0
:102660004FFE0020FEF740FE5020FEF73DFE00200A
:10267000FEF73AFE0020FEF737FE0020FEF734FE9C
:10268000F320FEF73DFE0020FEF72EFEF920FEF7B8
:1026900037FE0620FEF728FE1020FEF725FE292033
:1026A000FEF722FE0020FEF71FFE3A20FEF728FE6E
:1026B0005520FEF719FE1120FEF722FE6420FDF7DB
:1026C00059FF2920FEF71CFE3520FEF719FE0020D9
:1026D000FEF70AFE5120FEF713FEFF20FEF704FE70
:1026E0005320FEF70DFE2C20FEF7FEFD5520FEF7D1
:1026F00007FE8220FEF7F8FD2C20FCE3A8427CD1E7
:102700004FF4704355211846FEF710FE4FF2010AB0
:10271000AA215046FEF70AFE4FF2020B52215846FC
:10272000FEF704FE08214FF20300FEF7FFFD012132
:102730004FF20400FEF7FAFD0D214FF43040FEF792
:10274000F5FD0D214BF20100FEF7F0FD0D214BF2DE
:102750000200FEF7EBFD34214FF43640FEF7E6FDB4
:1027600034214BF20160FEF7E1FD34214BF20260AF
:10277000FEF7DCFD0D214FF43140FEF7D7FD0D21B2
:102780004BF20110FEF7D2FD0D214BF20210FEF7C5
:10279000CDFD34214FF43740FEF7C8FD34214BF214
:1027A0000170FEF7C3FD34214BF20270FEF7BEFD4F
:1027B00000214FF43240FEF7B9FD00214BF2012019
:1027C000FEF7B4FD00214BF20220FEF7AFFD2421FD
:1027D0004FF43840FEF7AAFD24214BF60100FEF726
:1027E000A5FD24214BF60200FEF7A0FD01214FF4C8
:1027F0003F40FEF79BFD0F2100E0FDE34FF4334027
:10280000FEF794FD0F214BF20130FEF78FFD0F21F3
:102810004BF20230FEF78AFD34214FF43940FEF7C7
:1028200085FD34214BF60110FEF780FD34214BF677
:102830000210FEF77BFD08214FF43540FEF776FDD0
:1028400008214BF20150FEF771FD08214BF20250B6
:10285000FEF76CFD03214FF44240FEF767FD242193
:102860004FF43A40FEF762FD24214BF60120FEF7BB
:102870005DFD24214BF60220FEF758FD00214FF4A8
:102880003C40FEF753FD78214BF60140FEF74EFD2C
:1028900000214BF60240FEF749FD00214FF43D4078
:1028A000FEF744FD78214BF60150FEF73FFD002175
:1028B0004BF60250FEF73AFD00214FF43E40FEF782
:1028C00035FD64214BF60160FEF730FD00214FF429
:1028D0005140FEF72BFD33214DF20110FEF726FD8E
:1028E00000214DF20210FEF721FD34214DF20310BC
:1028F000FEF71CFD00214DF20410FEF717FD3A21F2
:102900004DF20510FEF712FD00214DF20610FEF704
:102910000DFD4A214DF20710FEF708FD00214DF292
:102920000810FEF703FD5C214DF20910FEF7FEFCD6
:1029300000214DF20A10FEF7F9FC81214DF20B1037
:10294000FEF7F4FC00214DF20C10FEF7EFFCA6217F
:102950004DF20D10FEF7EAFC00214DF20E10FEF7CD
:10296000E5FCE5214DF20F10FEF7E0FC01214DF2F0
:102970001010FEF7DBFC13214DF21110FEF7D6FC10
:1029800001214DF21210FEF7D1FC54214DF213102B
:10299000FEF7CCFC01214DF21410FEF7C7FC82219A
:1029A0004DF21510FEF7C2FC01214DF21610FEF794
:1029B000BDFCCA214DF21710FEF7B8FC02214DF202
:1029C0001810FEF7B3FC00214DF21910FEF7AEFC13
:1029D00002214DF21A10FEF7A9FC01214DF21B1045
:1029E000FEF7A4FC02214DF21C10FEF79FFC3421DF
:1029F0004DF21D10FEF79AFC02214DF21E10FEF75B
:102A000095FC67214DF21F10FEF790FC02214DF25C
:102A10002010FEF78BFC84214DF22110FEF786FC7E
:102A200002214DF22210FEF781FCA4214DF2231069
:102A3000FEF77CFC02214DF22410FEF777FCB72153
:102A40004DF22510FEF772FC02214DF22610FEF722
:102A50006DFCCF214DF22710FEF768FC02214DF2EC
:102A60002810FEF763FCDE214DF22910FEF75EFC14
:102A700002214DF22A10FEF759FCF2214DF22B10E3
:102A8000FEF754FC02214DF22C10FEF74FFCFE2104
:102A90004DF22D10FEF74AFC03214DF22E10FEF7E9
:102AA00045FC10214DF22F10FEF740FC03214DF2A2
:102AB0003010FEF73BFC33214DF23110FEF736FCAF
:102AC00003214DF23210FEF731FC6D214DF233102F
:102AD000FEF72CFC00214FF45240FEF727FC332177
:102AE0004DF20120FEF722FC00214DF20220FEF7FC
:102AF0001DFC34214DF20320FEF718FC00214DF29D
:102B00000420FEF713FC3A214DF20520FEF70EFCDF
:102B100000214DF20620FEF709FC4A214DF2072064
:102B2000FEF704FC00214DF20820FEF7FFFB5C21BC
:102B30004DF20920FEF7FAFB00214DF20A20FEF7C4
:102B4000F5FB81214DF20B20FEF7F0FB00214DF249
:102B50000C20FEF7EBFBA6214DF20D20FEF7E6FB65
:102B600000214DF20E20FEF7E1FBE5214DF20F2092
:102B7000FEF7DCFB01214DF21020FEF7D7FB1321FD
:102B80004DF21120FEF7D2FB01214DF21220FEF78B
:102B9000CDFB54214DF21320FEF7C8FB01214DF26D
:102BA0001420FEF7C3FB82214DF21520FEF7BEFB79
:102BB00001214DF21620FEF7B9FBCA214DF2172074
:102BC000FEF7B4FB02214DF21820FEF7AFFB002107
:102BD0004DF21920FEF7AAFB02214DF21A20FEF752
:102BE000A5FB01214DF21B20FEF7A0FB02214DF2B7
:102BF0001C20FEF79BFB34214DF21D20FEF796FBB7
:102C000002214DF21E20FEF791FB67214DF21F209D
:102C1000FEF78CFB02214DF22020FEF787FB84217A
:102C20004DF22120FEF782FB02214DF22220FEF719
:102C30007DFBA4214DF22320FEF778FB02214DF20B
:102C40002420FEF773FBB7214DF22520FEF76EFB23
:102C500002214DF22620FEF769FBCF214DF22720FD
:102C6000FEF764FB02214DF22820FEF75FFBDE2118
:102C70004DF22920FEF75AFB02214DF22A20FEF7E1
:102C800055FBF2214DF22B20FEF750FB02214DF2B5
:102C90002C20FEF74BFBFE214DF22D20FEF746FBCC
:102CA00003214DF22E20FEF741FB10214DF22F2083
:102CB000FEF73CFB03214DF23020FEF737FB3321BA
:102CC0004DF23120FEF732FB03214DF23220FEF7A8
:102CD0002DFB6D214DF23320FEF728FB00214FF430
:102CE0005340FEF723FB33214DF20130FEF71EFB6C
:102CF00000214DF20230FEF719FB34214DF2033072
:102D0000FEF714FB00214DF20430FEF70FFB3A21D1
:102D10004DF20530FEF70AFB00214DF20630FEF7BA
:102D200005FB4A214DF20730FEF700FB00214DF272
:102D30000830FEF7FBFA5C214DF20930FEF7F6FA97
:102D400000214DF20A30FEF7F1FA81214DF20B30ED
:102D5000FEF7ECFA00214DF20C30FEF7E7FAA6215F
:102D60004DF20D30FEF7E2FA00214DF20E30FEF783
:102D7000DDFAE5214DF20F30FEF7D8FA01214DF2D0
:102D80001030FEF7D3FA13214DF21130FEF7CEFAD0
:102D900001214DF21230FEF7C9FA54214DF21330E1
:102DA000FEF7C4FA01214DF21430FEF7BFFA82217A
:102DB0004DF21530FEF7BAFA01214DF21630FEF74A
:102DC000B5FACA214DF21730FEF7B0FA02214DF2E2
:102DD0001830FEF7ABFA00214DF21930FEF7A6FAD3
:102DE00002214DF21A30FEF7A1FA01214DF21B30FB
:102DF000FEF79CFA02214DF21C30FEF797FA3421BF
:102E00004DF21D30FEF792FA02214DF21E30FEF710
:102E10008DFA67214DF21F30FEF788FA02214DF23C
:102E20002030FEF783FA84214DF22130FEF77EFA3E
:102E300002214DF22230FEF779FAA4214DF223301F
:102E4000FEF774FA02214DF22430FEF76FFAB72133
:102E50004DF22530FEF76AFA02214DF22630FEF7D8
:102E600065FACF214DF22730FEF760FA02214DF2CC
:102E70002830FEF75BFADE214DF22930FEF756FAD4
:102E800002214DF22A30FEF751FAF2214DF22B3099
:102E9000FEF74CFA02214DF22C30FEF747FAFE21E4
:102EA0004DF22D30FEF742FA03214DF22E30FEF79F
:102EB0003DFA10214DF22F30FEF738FA03214DF282
:102EC0003030FEF733FA33214DF23130FEF72EFA6F
:102ED00003214DF23230FEF729FA6D214DF23330E5
:102EE000FEF724FA00214FF45440FEF71FFA332175
:102EF0004DF2014000E084E3FEF718FA00214DF2A4
:102F00000240FEF713FA34214DF20340FEF70EFAA9
:102F100000214DF20440FEF709FA3A214DF2054036
:102F2000FEF704FA00214DF20640FEF7FFF94A21B0
:102F30004DF20740FEF7FAF900214DF20840FEF786
:102F4000F5F95C214DF20940FEF7F0F900214DF250
:102F50000A40FEF7EBF981214DF20B40FEF7E6F94E
:102F600000214DF20C40FEF7E1F9A6214DF20D4093
:102F7000FEF7DCF900214DF20E40FEF7D7F9E5210E
:102F80004DF20F40FEF7D2F901214DF21040FEF74D
:102F9000CDF913214DF21140FEF7C8F901214DF290
:102FA0001240FEF7C3F954214DF21340FEF7BEF96B
:102FB00001214DF21440FEF7B9F982214DF215407E
:102FC000FEF7B4F901214DF21640FEF7AFF9CA2120
:102FD0004DF21740FEF7AAF902214DF21840FEF714
:102FE000A5F900214DF21940FEF7A0F902214DF29A
:102FF0001A40FEF79BF900E006E301214DF21B4069
:10300000FEF794F902214DF21C40FEF78FF93421AE
:103010004DF21D40FEF78AF902214DF21E40FEF7E7
:1030200085F967214DF21F40FEF780F902214DF22C
:103030002040FEF77BF984214DF22140FEF776F91E
:1030400002214DF22240FEF771F9A4214DF22340F6
:10305000FEF76CF902214DF22440FEF767F9B72123
:103060004DF22540FEF762F902214DF22640FEF7AF
:103070005DF9CF214DF22740FEF758F902214DF2BC
:103080002840FEF753F9DE214DF22940FEF74EF9B4
:1030900002214DF22A40FEF749F9F2214DF22B4070
:1030A000FEF744F902214DF22C40FEF73FF9FE21D4
:1030B0004DF22D40FEF73AF903214DF22E40FEF776
:1030C00035F910214DF22F40FEF730F903214DF272
:1030D0003040FEF72BF933214DF23140FEF726F94F
:1030E00003214DF23240FEF721F96D214DF23340BC
:1030F000FEF71CF900214FF45540FEF717F9332174
:103100004DF20150FEF712F900214DF20250FEF788
:103110000DF934214DF20350FEF708F900214DF26C
:103120000450FEF703F93A214DF20550FEF7FEF880
:1031300000214DF20650FEF7F9F84A214DF20750F2
:10314000FEF7F4F800214DF20850FEF7EFF85C218D
:103150004DF20950FEF7EAF800214DF20A50FEF751
:10316000E5F881214DF20B50FEF7E0F800214DF219
:103170000C50FEF7DBF8A6214DF20D50FEF7D6F805
:1031800000214DF20E50FEF7D1F8E5214DF20F501F
:10319000FEF7CCF801214DF21050FEF7C7F81321CD
:1031A0004DF21150FEF7C2F801214DF21250FEF718
:1031B000BDF854214DF21350FEF7B8F801214DF23D
:1031C0001450FEF7B3F882214DF21550FEF7AEF819
:1031D00001214DF21650FEF7A9F8CA214DF2175001
:1031E000FEF7A4F802214DF21850FEF79FF80021D7
:1031F0004DF21950FEF79AF802214DF21A50FEF7DF
:1032000095F801214DF21B50FEF790F802214DF286
:103210001C50FEF78BF834214DF21D50FEF786F856
:1032200002214DF21E50FEF781F867214DF21F502A
:10323000FEF77CF802214DF22050FEF777F884214A
:103240004DF22150FEF772F802214DF22250FEF7A6
:103250006DF8A4214DF22350FEF768F802214DF2DB
:103260002450FEF763F8B7214DF22550FEF75EF8C3
:1032700002214DF22650FEF759F8CF214DF227508A
:10328000FEF754F802214DF22850FEF74FF8DE21E8
:103290004DF22950FEF74AF802214DF22A50FEF76E
:1032A00045F8F2214DF22B50FEF740F802214DF285
:1032B0002C50FEF73BF8FE214DF22D50FEF736F86C
:1032C00003214DF22E50FEF731F810214DF22F5010
:1032D000FEF72CF803214DF23050FEF727F833218A
:1032E0004DF23150FEF722F803214DF23250FEF735
:1032F0001DF86D214DF23350FEF718F800214FF400
:103300005640FEF713F833214DF20160FEF70EF838
:1033100000214DF20260FEF709F834214DF20360FE
:10332000FEF704F800214DF20460FDF7FFFF3A219B
:103330004DF20560FDF7FAFF00214DF20660FDF742
:10334000F5FF4A214DF20760FDF7F0FF00214DF235
:103350000860FDF7EBFF5C214DF20960FDF7E6FF29
:1033600000214DF20A60FDF7E1FF81214DF20B6073
:10337000FDF7DCFF00214DF20C60FDF7D7FFA62121
:103380004DF20D60FDF7D2FF00214DF20E60FDF70A
:10339000CDFFE5214DF20F60FDF7C8FF01214DF291
:1033A0001060FDF7C3FF13214DF21160FDF7BEFF62
:1033B00001214DF21260FDF7B9FF54214DF2136067
:1033C000FDF7B4FF01214DF21460FDF7AFFF82213C
:1033D0004DF21560FDF7AAFF01214DF21660FDF7D1
:1033E000A5FFCA214DF21760FDF7A0FF02214DF2A3
:1033F0001860FDF79BFF00214DF21960FDF796FF65
:1034000002214DF21A60FDF791FF01214DF21B6080
:10341000FDF78CFF02214DF21C60FDF787FF342180
:103420004DF21D60FDF782FF02214DF21E60FDF797
:103430007DFF67214DF21F60FDF778FF02214DF2FD
:103440002060FDF773FF84214DF22160FDF76EFFD0
:1034500002214DF22260FDF769FFA4214DF22360A5
:10346000FDF764FF02214DF22460FDF75FFFB721F5
:103470004DF22560FDF75AFF02214DF22660FDF75F
:1034800055FFCF214DF22760FDF750FF02214DF28D
:103490002860FDF74BFFDE214DF22960FDF746FF66
:1034A00002214DF22A60FDF741FFF2214DF22B601F
:1034B000FDF73CFF02214DF22C60FDF737FFFE21A6
:1034C0004DF22D60FDF732FF03214DF22E60FDF726
:1034D0002DFF10214DF22F60FDF728FF03214DF243
:1034E0003060FDF723FF33214DF23160FDF71EFF01
:1034F00003214DF23260FDF719FF6D214DF233606B
:10350000FDF714FF55211846FDF710FFAA2150467C
:10351000FDF70CFF52215846FDF708FF08214FF236
:103520000300FDF703FF00214FF20400FDF7FEFE4C
:10353000CC214FF43140FDF7F9FE00214BF2011090
:10354000FDF7F4FE05214FF43640FDF7EFFE702144
:103550004FF43740FDF7EAFE70214BF20170FDF7A2
:10356000E5FE01214FF43840FDF7E0FE03214BF664
:103570000100FDF7DBFE03214BF60200FDF7D6FE4E
:1035800003214BF60300FDF7D1FE02214FF43C402E
:10359000FDF7CCFE00214BF60140FDF7C7FE0021F0
:1035A0004BF60240FDF7C2FED0214FF44940FDF733
:1035B000BDFE02214CF60110FDF7B8FE50214CF67D
:1035C0000210FDF7B3FE50214CF60310FDF7AEFEDE
:1035D00050214CF60410FDF7A9FE00214FF4545081
:1035E000FDF7A4FE55214FF46850FDF79FFE4FF400
:1035F0008850FDF785FE7720401EC0B2FCD24FF404
:103600002450FDF77DFEBAE04045FCD1E220FDF7F5
:1036100077FE1D20FDF768FE0220FDF765FE042001
:10362000FDF762FE6320401EC0B2FCD2E020FDF731
:1036300067FE0120FDF758FE0A20FCF79BFFE02003
:10364000FDF75EFE0320FDF74FFE0C20FCF792FF16
:103650000120FDF755FE0A20FCF78CFFE620FDF760
:103660004FFE2F20FDF740FEFF20FDF73DFEFF201F
:10367000FDF73AFEB020FDF743FE2020FDF734FEB3
:103680000020FDF731FE0320FDF72EFE40F21F3033
:10369000FDF72AFE0120FDF727FE40F2DF10FDF7BF
:1036A00023FE0020FDF720FEB420FDF729FE0420B4
:1036B000FDF71AFE40F21F40FDF716FE0020FDF751
:1036C00013FE2E20FDF710FE0020FDF70DFE00205A
:1036D000FDF70AFE0020FDF707FE0020FDF704FEBF
:1036E000B620FDF70DFE0220FDF7FEFD4FF403703E
:1036F000FDF7FAFD0020FDF7F7FD1720FDF7F4FDBB
:103700001520FDF7F1FD0020FDF7EEFD0020FDF78F
:10371000EBFDF020FDF7F4FD0320FDF7E5FD29208A
:10372000FDF7EEFDD020FDF7EBFD0020FDF7DCFD01
:10373000BE20FDF7E5FD0520FDF7D6FDFE20FDF7D7
:10374000D3FD0120FDF7D0FD0020FDF7CDFD0020C9
:10375000FDF7CAFD0020FDF7C7FDB820FDF7D0FD3D
:103760000320FDF7C1FD0120FDF7BEFDBA20FDF7E6
:10377000C7FD0120FDF7B8FD6420FDF72FFCA088F0
:10378000B04205D0B84203D0A84201D0404519D17B
:103790004FF02040D0F81C1121F00F01C0F81C118F
:1037A000D0F81C1121F47061C0F81C11D0F81C1164
:1037B00041F00301C0F81C11D0F81C1141F4007154
:1037C000C0F81C110020FDF785FB0548016841F495
:1037D000004101604846BDE8F05FFDF761BB0000B5
:1037E00014040240FEE70907090E002804DB00F17B
:1037F000E02080F80014704700F00F0000F1E02096
:1038000080F8141D704702E008C8121F08C1002A82
:10381000FAD170477047002001E001C1121F002A51
:10382000FBD17047FCF7FCFFFDF714FEFDF7BCFD74
:10383000FDF782FDFDF754FE4FF6FF70FDF730FBFC
:103840000020FDF747FB1A4E1A4D4FF478495027D8
:103850004FF480580024C5F8009000BF36F81400DB
:10386000C0EB0010000107EB1031C4EB0410C0F3F3
:103870009510FDF79BFB641CA4B24445EED30020D9
:1038800004462860C8212046FDF790FB641CA4B2C2
:10389000F02CF7D35FF0000404F1500081B27820DF
:1038A000FDF784FB641CA4B2F02CF5D3D2E7000032
:1038B000B83800080800002000080C08190825087E
:1038C00032083E084B085708640871087D088A08CA
:1038D0009608A308AF08BC08C808D508E108EE0898
:1038E000FA08070913091F092C0938094509510964
:1038F0005E096A09760983098F099B09A809B40939
:10390000C009CC09D909E509F109FD09090A150A17
:10391000220A2E0A3A0A460A520A5E0A6A0A760AF7
:10392000820A8E0A9A0AA50AB10ABD0AC90AD50AEC
:10393000E00AEC0AF80A030B0F0B1B0B260B320BE9
:103940003D0B490B540B600B6B0B760B820B8D0BF5
:10395000980BA30BAE0BBA0BC50BD00BDB0BE60B16
:10396000F10BFC0B060C110C1C0C270C320C3C0C44
:10397000470C520C5C0C670C710C7B0C860C900C89
:103980009A0CA50CAF0CB90CC30CCD0CD70CE10CE8
:10399000EB0CF50CFF0C090D120D1C0D260D2F0D57
:1039A000390D420D4C0D550D5F0D680D710D7A0DE1
:1039B000830D8C0D950D9E0DA70DB00DB90DC20D8B
:1039C000CA0DD30DDC0DE40DED0DF50DFD0D060E4C
:1039D0000E0E160E1E0E260E2E0E360E3E0E460E27
:1039E0004E0E550E5D0E650E6C0E740E7B0E820E25
:1039F0008A0E910E980E9F0EA60EAD0EB40EBB0E43
:103A0000C10EC80ECF0ED50EDC0EE20EE80EEF0E84
:103A1000F50EFB0E010F070F0D0F130F190F1F0FE0
:103A2000240F2A0F300F350F3A0F400F450F4A0F62
:103A30004F0F540F590F5E0F630F680F6D0F710F0B
:103A4000760F7A0F7F0F830F870F8C0F900F940FD5
:103A5000980F9C0F9F0FA30FA70FAA0FAE0FB10FC8
:103A6000B50FB80FBB0FBF0FC20FC50FC80FCA0FDE
:103A7000CD0FD00FD30FD50FD80FDA0FDC0FDF0F1C
:103A8000E10FE30FE50FE70FE90FEB0FEC0FEE0F80
:103A9000F00FF10FF30FF40FF50FF60FF70FF80F0C
:103AA000F90FFA0FFB0FFC0FFD0FFD0FFE0FFE0FBE
:103AB000FE0FFF0FFF0FFF0FFF0FFF0FFF0FFF0F97
:103AC000FE0FFE0FFE0FFD0FFD0FFC0FFB0FFA0F99
:103AD000F90FF80FF70FF60FF50FF40FF30FF10FC3
:103AE000F00FEE0FEC0FEB0FE90FE70FE50FE30F11
:103AF000E10FDF0FDC0FDA0FD80FD50FD30FD00F88
:103B0000CD0FCA0FC80FC50FC20FBF0FBB0FB80F25
:103B1000B50FB10FAE0FAA0FA70FA30F9F0F9C0FEA
:103B2000980F940F900F8C0F870F830F7F0F7A0FD2
:103B3000760F710F6D0F680F630F5E0F590F540FE3
:103B40004F0F4A0F450F400F3A0F350F300F2A0F16
:103B5000240F1F0F190F130F0D0F070F010FFB0E6F
:103B6000F50EEF0EE80EE20EDC0ED50ECF0EC80EEF
:103B7000C10EBB0EB40EAD0EA60E9F0E980E910E8A
:103B80008A0E820E7B0E740E6C0E650E5D0E550E47
:103B90004E0E460E3E0E360E2E0E260E1E0E160E25
:103BA0000E0E060EFD0DF50DED0DE40DDC0DD30D25
:103BB000CA0DC20DB90DB00DA70D9E0D950D8C0D42
:103BC000830D7A0D710D680D5F0D550D4C0D420D75
:103BD000390D2F0D260D1C0D120D090DFF0CF50CC6
:103BE000EB0CE10CD70CCD0CC30CB90CAF0CA50C35
:103BF0009A0C900C860C7B0C710C670C5C0C520CB4
:103C0000470C3C0C320C270C1C0C110C060CFC0B4A
:103C1000F10BE60BDB0BD00BC50BBA0BAE0BA30BFA
:103C2000980B8D0B820B760B6B0B600B540B490BB7
:103C30003D0B320B260B1B0B0F0B030BF80AEC0A88
:103C4000E00AD50AC90ABD0AB10AA50A9A0A8E0A6B
:103C5000820A760A6A0A5E0A520A460A3A0A2E0A54
:103C6000220A150A090AFD09F109E509D909CC0951
:103C7000C009B409A8099B098F09830976096A0953
:103C80005E095109450938092C091F09130907095B
:103C9000FA08EE08E108D508C808BC08AF08A30870
:103CA00096088A087D087108640857084B083E0882
:103CB0003208250819080C08FF07F307E607DA079A
:103CC000CD07C107B407A8079B078E0782077507B2
:103CD00069075C075007430737072A071E071107C4
:103CE0000507F806EC06E006D306C706BA06AE06D8
:103CF000A106950689067C067006640657064B06E3
:103D00003F06330626061A060E060206F605EA05E3
:103D1000DD05D105C505B905AD05A10595058905E3
:103D20007D05710565055A054E05420536052A05CE
:103D30001F0513050705FC04F004E404D904CD04B1
:103D4000C204B604AB049F04940489047D04720485
:103D500067045C04510445043A042F042404190444
:103D60000E040304F903EE03E303D803CD03C303F6
:103D7000B803AD03A30398038E03840379036F0391
:103D800065035A03500346033C03320328031E0312
:103D900014030A030003F602ED02E302D902D00283
:103DA000C602BD02B302AA02A00297028E028502D9
:103DB0007C0273026A02610258024F0246023D020F
:103DC00035022C0223021B0212020A020202F9012E
:103DD000F101E901E101D901D101C901C101B90133
:103DE000B101AA01A2019A0193018B0184017D0115
:103DF00075016E0167016001590152014B014401D7
:103E00003E01370130012A0123011D011701100174
:103E10000A010401FE00F800F200EC00E600E000F8
:103E2000DB00D500CF00CA00C500BF00BA00B50056
:103E3000B000AB00A600A1009C00970092008E008D
:103E40008900850080007C00780073006F006B00A3
:103E50006700630060005C005800550051004E0090
:103E60004A004700440040003D003A00370035005A
:103E700032002F002C002A002700250023002000FC
:103E80001E001C001A001800160014001300110078
:103E90000F000E000C000B000A00090008000700CC
:103EA00006000500040003000200020001000100FA
:103EB0000100000000000000000000000000000001
:103EC00001000100010002000200030004000500DF
:103ED00006000700080009000A000B000C000E0095
:103EE0000F00110013001400160018001A001C0027
:103EF0001E0020002300250027002A002C002F0090
:103F00003200350037003A003D00400044004700D1
:103F10004A004E005100550058005C0060006300EC
:103F200067006B006F00730078007C0080008500E4
:103F300089008E00920097009C00A100A600AB00B3
:103F4000B000B500BA00BF00C500CA00CF00D50060
:103F5000DB00E000E600EC00F200F800FE000401E7
:103F60000A01100117011D0123012A013001370147
:103F70003E0144014B0152015901600167016E018C
:103F800075017D0184018B0193019A01A201AA01AF
:103F9000B101B901C101C901D101D901E101E901B1
:103FA000F101F90102020A0212021B0223022C0291
:103FB00035023D0246024F02580261026A02730254
:103FC0007C0285028E029702A002AA02B302BD0201
:103FD000C602D002D902E302ED02F60200030A0390
:103FE00014031E03280332033C03460350035A0301
:103FF00065036F03790384038E039803A303AD0362
:10400000B803C303CD03D803E303EE03F9030304AA
:104010000E04190424042F043A04450451045C04DA
:10402000670472047D04890494049F04AB04B604FD
:10403000C204CD04D904E404F004FC04070513050C
:104040001F052A05360542054E055A056505710509
:104050007D0589059505A105AD05B905C505D10500
:10406000DD05EA05F60502060E061A0626063306E3
:104070003F064B065706640670067C0689069506C1
:10408000A106AE06BA06C706D306E006EC06F80699
:10409000050711071E072A073707430750075C0764
:1040A0006907750782078E079B07A807B407C10732
:1040B000CD07DA07E607F307000000000000000064
:1040C0000102030406070809E84000080000002078
:1040D00020000000063800080841000820000020E9
:1040E0006004000016380008000000000000000016
:1040F000000000FFFFFFFFFF0100000010000000B4
:08410000000000000024F4009F
:040000050800018965
:00000001FF
