:020000040800F2
:10000000201D00209D0100083B0E00083D0D00084A
:10001000390E0008FF0200088112000800000000ED
:10002000000000000000000000000000EF110008C8
:100030000103000800000000ED110008F1110008A4
:10004000B7010008B7010008B7010008B7010008B0
:10005000B7010008B7010008B7010008B7010008A0
:10006000B7010008B7010008B7010008B701000890
:10007000B7010008B7010008B7010008B701000880
:10008000B7010008B7010008B7010008B701000870
:10009000B7010008B7010008B7010008B701000860
:1000A000B7010008B7010008B7010008B701000850
:1000B000B7010008B7010008B7010008B701000840
:1000C000B7010008B7010008B7010008B701000830
:1000D000B7010008B7010008B7010008B701000820
:1000E000B7010008B7010008B7010008B701000810
:1000F000B7010008B7010008B7010008B701000800
:10010000B7010008B7010008B7010008B7010008EF
:10011000B7010008B7010008B7010008B7010008DF
:10012000B7010008B7010008B7010008B7010008CF
:10013000B7010008B7010008B7010008B7010008BF
:10014000B7010008B7010008B7010008B7010008AF
:10015000B7010008B7010008B7010008B70100089F
:10016000B7010008B7010008B7010008B70100088F
:10017000B7010008B7010008B7010008000000003F
:10018000B7010008B7010008DFF80CD000F07AF8DA
:1001900000480047C1120008201D00200648804783
:1001A00006480047FEE7FEE7FEE7FEE7FEE7FEE75C
:1001B000FEE7FEE7FEE7FEE765120008890100089A
:1001C0002DE9F05F0546002092469B46884606468C
:1001D000814640241BE0284641464746224600F01F
:1001E00041F853465A46C01A914110D31146184659
:1001F000224600F028F82D1A67EB01084F462246E8
:100200000120002100F01FF817EB00094E41201ECD
:10021000A4F10104DFDC484631462A464346BDE8E6
:10022000F09FD2B201E000F8012B491EFBD27047CB
:100230000022F6E710B513460A4604461946FFF7B2
:10024000F0FF204610BD202A04DB203A00FA02F11C
:10025000002070479140C2F1200320FA03F31943B4
:1002600090407047202A04DB203A21FA02F0002156
:10027000704721FA02F3D040C2F1200291400843B6
:1002800019467047064C074D06E0E06840F0010350
:1002900094E8070098471034AC42F6D3FFF778FF94
:1002A000481300086813000870B58C1810F8015B3B
:1002B00015F0070301D110F8013B2A1106D110F8FF
:1002C000012B03E010F8016B01F8016B5B1EF9D103
:1002D0002B0705D40023521E0DD401F8013BFAE789
:1002E00010F8013BCB1A921C03E013F8015B01F8F4
:1002F000015B521EF9D5A142D8D3002070BDFEE7A4
:100300007047704770B5044600F0F0F80546601C71
:1003100002D004480078044400F0E8F8401BA042F2
:10032000FAD370BD381400202DE9F84F00224FF0A9
:10033000010803254FF00F0E0B6808FA02F4234062
:10034000A3426ED14E68012E05D0022E03D0112E8D
:1003500001D0122E12D186684FEA420C05FA0CF732
:10036000BE43CF6807FA0CF7374387604668A64359
:100370000C79C4F30014944034434460C6685700B9
:1003800005FA07FC8C6826EA0C06BC403443C460BE
:100390004C68022C01D0122C13D1D40800EB840439
:1003A000A346D4F8209054074FEAD46A0EFA0AF60E
:1003B00029EA06090E6906FA0AF646EA0906CBF8A2
:1003C000206006680C7926EA0C0604F00304BC40A1
:1003D000344304604C68E40065D5364C266846F426
:1003E00080462660246822F0030604F480440094CA
:1003F000314C3444A446D4F808489607370F0EFA17
:1004000007F6B4432D4EB04201D1002624E02C4E15
:10041000B04201D101261FE02A4EB04202D102268D
:100420001AE040E0284EB04201D1032614E0274EE6
:10043000B04201D104260FE0254EB04201D105267D
:100440000AE0244EB04201D1062605E0224EB04219
:1004500001D1072600E00826BE402643CCF80868F4
:100460001E4E34684F689C43FF0300D51C43346024
:100470001A4C241D26684F689E43BF0300D51E43B7
:100480002660164E083634684F689C43FF0200D53C
:100490001C433460114E0C3634684F689C43BF02D5
:1004A00000D51C433460521C102AFFF445AFBDE850
:1004B000F88F000044380240003001400000024044
:1004C0000004024000080240000C024000100240FC
:1004D0000014024000180240001C0240003C014091
:1004E0000AB1816170470904FBE700000148806898
:1004F000704700003814002070B5040025D094F82F
:100500003D00002520B984F83C50204600F0B8F8A2
:10051000242084F83D002068016821F00101016079
:100520002068016841F4004101602068016821F4FD
:100530000041016000F0FEF94D4A6168914201D826
:100540004C4900E04C49884201D2012070BD4B4922
:100550002368B0FBF1F15E6826F03F060E435E6053
:100560006368934206D94FF4967359434FF47A73F4
:10057000B1FBF3F12368491C1E6A26F03F063143A4
:1005800019626168914210D84900401EB0FBF1F237
:10059000521CC2F30B02042A01D2042022E0B0FB59
:1005A000F1F0401CC0F30B001CE0A268F2B301EBB9
:1005B000C10303EB0116431EB3FBF6F35B1C43F4CC
:1005C00080431B0549D092B301EBC10202EB01113C
:1005D000401EB0FBF1F0401CC0F30B0040F4804023
:1005E00040F400402168CA694CF6FF739A431043F7
:1005F000C861D4E9071001432068026822F0C002F4
:1006000011430160D4E9030101432068826848F284
:10061000FF339A4311438160D4E9050108432168FF
:10062000CA6822F0FF021043C86001E00EE016E045
:100630002068016841F0010101602564202084F8F0
:100640003D00256384F83E50002070BD01EB41065B
:10065000431EB3FBF6F35B1CB3E70120C2E701EBDB
:100660004101401EB0FBF1F0401CC0F30B00B7E7A6
:10067000A086010080841E0000093D0040420F005A
:1006800010B586B0044614216846FFF7D1FD134922
:100690002068884220D11248016841F002010160BF
:1006A0000068694600F002000590C020009012200A
:1006B0000190012002900320039004200490094837
:1006C000FFF732FE06481030016841F40011016066
:1006D000006800F40010059006B010BD0054004002
:1006E0003038024000040240024881680278114418
:1006F00081607047381400200B4810B5016841F440
:1007000000710160016841F480610160016841F499
:1007100080710160032000F061F8002000F006F80D
:1007200000F024F8002010BD003C024070B50D4DD3
:1007300004464FF47A712878B1FBF0F00A49096851
:10074000B1FBF0F000F0E6FA48B9102C07D2002215
:100750002146501E00F022F800206C6070BD012080
:1007600070BD000038140020441400200A4808B569
:10077000016841F480410160006800F4804000900D
:100780000548001F016841F080510160006800F0D9
:100790008050009008BD000044380240F0B40E4B79
:1007A0001B680C46C3F30223C3F10705042D00D9CF
:1007B0000425191D072901D2002300E0DB1E0126B4
:1007C00006FA05F1491E214099409E40761E1640CA
:1007D0003143F0BC00F055BD0CED00E0064900F0DF
:1007E000070208684FF6FF03184040EA0220034A58
:1007F00010430860704700000CED00E00000FA05AF
:100800002DE9F0470E46050065D0DFF81481D8F8D1
:100810000000F7B200F00F00B04207D288F8007075
:10082000D8F8000000F00F00B04254D128683D4CC9
:10083000810712D5400703D5206840F4E0502060BE
:100840002878000703D5206840F4604020602068C5
:10085000A96820F0F000084320602878C0072DD058
:10086000304968680839012812D0022813D00328BB
:1008700011D00968890700292DDA216821F00301C8
:1008800001432160FFF732FE814641F2883A0EE0D3
:1008900009688903EFE709688901ECE7FFF726FE9D
:1008A000A0EB0901514502D90320BDE8F08720687B
:1008B000696800F00C00B0EB810FEFD1D8F80010A0
:1008C000404601F00F01B14207D90770006800F0FF
:1008D0000F00B04201D00120E7E72878400705D596
:1008E0002068E96820F4E050084320602878000779
:1008F00006D52068296920F4604040EAC1002060E4
:1009000000F028F82168084AC1F30311515CC8407F
:100910000649086006480068FFF708FF0020C4E7A2
:10092000003C0240083802402E1300084414002006
:100930003C1400200448054900680968044AC1F3D2
:100940008221515CC840704744140020083802409E
:100950003E130008154810B5006810F00C0214484A
:1009600013D01449042A0FD0082A0ED10F4C241F8B
:100970002268236802F03F025B0207D52068C0F3BB
:100980008810A0FB010106E0084610BD2168C1F3F4
:100990008811A1FB00010023FFF712FC2168C1F3BD
:1009A0000141491C4900B0FBF1F010BD083802407C
:1009B0000024F40040787D012DE9F84F04006ED04A
:1009C0002078DFF83C93C007A9F104054AD009F16B
:1009D00004000168C1F38101012908D00068C0F357
:1009E000810002280AD1D9F80000400206D5286803
:1009F000800337D560680028E1D033E06068B0F547
:100A0000803F10D0B0F5A02F286810D020F480309F
:100A10002860286820F4802028606068A8B1FFF76B
:100A200065FD06460DE0286840F48030F4E740F4A8
:100A300080202860F7E700BFFFF758FD801B64287F
:100A400073D828688003F7D50CE0FFF74FFD064602
:100A500005E000BFFFF74AFD801B6428F0D8286836
:100A60008003F7D42078DFF89C8280074FF0000ADB
:100A70003ED5A348001D016811F00C0F08D0006896
:100A8000C0F3810002280BD1D9F80000400207D43E
:100A90002868800716D5E068012800D112E02BE114
:100AA000E068B8B10120C8F80000FFF71FFD064656
:100AB00005E000BFFFF71AFD801B0228C0D8286898
:100AC0008007F7D52868216920F0F80040EAC100C6
:100AD00028600DE0C8F800A0FFF708FD064604E016
:100AE000FFF704FD801B02281FD828688007F7D471
:100AF0002078000722D5824E83486169703671B133
:100B000001210160FFF7F2FC074604E0FFF7EEFC6D
:100B1000C01B022809D830688007F7D50EE0C0F85E
:100B200000A0FFF7E3FC074605E082E0FFF7DEFCEC
:100B3000C01B02287DD830688007F7D42078400792
:100B400068D5DFF8BCB100270BF13C0BDBF80000E7
:100B5000C0000BD4DBF8001041F08051CBF800103E
:100B6000DBF80000012700F080500090674E3068ED
:100B7000C00510D4306840F480703060FFF7B6FCD8
:100B8000009005E0FFF7B2FC0099401A022850D807
:100B90003068C005F6D55A4EA0686C3601280FD0D3
:100BA0000528306810D020F001003060306820F057
:100BB00004003060A068B8B1FFF798FC00900FE027
:100BC000306840F00100F4E740F004003060F7E7DF
:100BD000FFF78CFC0099411A41F28830814266D8B7
:100BE00030688007F4D50EE0FFF780FC009007E046
:100BF000FFF77CFC0099411A41F28830814256D8B7
:100C000030688007F4D42FB1DBF8001021F0805158
:100C1000CBF80010A069C8B33949091D0968C1F3B0
:100C2000810102294AD00228504607D0C8F8600046
:100C300000E03CE0FFF75AFC04463BE04746C8F8BA
:100C40006000FFF753FC064605E000BFFFF74EFCCF
:100C5000801B02282BD828688001F7D4D4E907012B
:100C60000843A16A2A4A490802EB0141626A41EA43
:100C70008211084394F82C1040EA0161C9F8001071
:100C800001203866FFF732FC044606E036E000BF7C
:100C9000FFF72CFC001B022809D828688001F7D533
:100CA0002CE000BFFFF722FC001B022802D9032022
:100CB000BDE8F88F28688001F4D41FE00128F7D040
:100CC000D9F80000E26900F48001914214D1226A4F
:100CD00000F03F0191420FD147F6C071626A0140B6
:100CE000914209D1A26A00F44031914204D1E16AF3
:100CF00000F07060884201D00120D9E70020D7E7DA
:100D00000438024000004742800E47420070004015
:100D10000000FFFF10B5401EB0F1807F01D301201D
:100D200010BD4FF0E02460610F21601700F0A9FAB8
:100D30000020A06107202061002010BDFEE7000018
:100D40002DE9F04186B014216846FFF771FA274873
:100D5000016841F080010160016801F080010591A6
:100D6000016841F008010160016801F00801059186
:100D7000016841F001010160016801F00101059184
:100D8000016841F040010160016801F040010591F6
:100D9000016841F0020101600068154F00F0020097
:100DA00048F232040590002221463846FFF798FBAE
:100DB000DFF84080BE14002231464046FFF790FB2A
:100DC000009401240225694638460194CDE9024584
:100DD000FFF7AAFACDE9006469464046CDE902452D
:100DE000FFF7A2FA06B0BDE8F081000030380240FB
:100DF000000C0240001802400D4810B50B4901607C
:100E00000C49416000214FF480428160C0E9031227
:100E100041618161C1610162FFF76EFB002803D06F
:100E2000BDE81040FFF76DBA10BD0000005400404F
:100E300048140020A0860100FEE7704730B400216E
:100E4000084B0A465FF0000003EBC004401CC0B230
:100E500062548028F8D3491CC9B20829F2D330BCA7
:100E600000F0EEB89C140020CA0801F0070301212D
:100E70009940044B03EBC003985C61EA0000C04357
:100E8000985470479C1400202DE9F0430D46064607
:100E9000802A13D8402B11D896420FD89D420DD8E6
:100EA0005C1B96420CD1002706E0E819C1B230461F
:100EB00000F032F87F1CFFB2BC42F6DCBDE8F083E4
:100EC000971B9D420BD1002406E03019C0B2294681
:100ED00000F022F8641CE4B2A742F6DCEEE7E1B2CF
:100EE00001EB81014900F8B2B1FBF0F000F0FF081E
:100EF00000244FF00A090BE014FB08F1B1FBF9F0F4
:100F00002844C1B23019C0B200F006F8641CE4B243
:100F1000A742F1DCD2E70000CA0801F00703012173
:100F20009940034B03EBC000835C0B438354704731
:100F30009C14002010B5414C002210212046FFF7E0
:100F4000CFFAC820FFF7DEF9012210212046FFF773
:100F5000C7FA0021AE2000F007F90021084600F092
:100F600003F90021102000F0FFF80021402000F0DC
:100F7000FBF80021812000F0F7F80021CF2000F0DD
:100F8000F3F80021A12000F0EFF80021C82000F0C4
:100F9000EBF80021A62000F0E7F80021A82000F0DF
:100FA000E3F800213F2000F0DFF80021D32000F01B
:100FB000DBF80021084600F0D7F80021D52000F02A
:100FC000D3F80021802000F0CFF80021D92000F0D4
:100FD000CBF80021F12000F0C7F80021DA2000F062
:100FE000C3F80021122000F0BFF80021DB2000F040
:100FF000BBF80021402000F0B7F80021202000F0CD
:10100000B3F80021022000F0AFF800218D2000F09D
:10101000ABF80021142000F0A7F80021A42000F074
:10102000A3F80021A62000F09FF80021AF2000F0D7
:101030009BF8BDE81040FFF701BF0000000C024024
:1010400070B5114E002400BF04F1B000C0B2002101
:1010500000F08AF80021084600F086F800211020F0
:1010600000F082F85FF0000506EBC5000121005D8D
:1010700000F07AF86D1CEDB2802DF5D3641CE4B25B
:10108000082CE1D370BD00009C1400202DE9FF4F17
:1010900083B081460020CDE901091C4688468B4675
:1010A0004FEAD30A52E0059810FB04F1019800EBD7
:1010B000D100C0B200900198401CC0B20025019040
:1010C00042E0102C12D0182C15D0202C1AD0402C15
:1010D00041D12249009801EB40200027465D41465E
:1010E000F007484614D0FFF717FF13E01C4900989B
:1010F00001EB0010F1E700981A4900EBC00001EB8A
:10110000C000EAE717490098D83101EBC010E4E7C6
:10111000FFF7AAFE7F1C760808F10100FFB200F07D
:10112000FF08082FDBD309F10100029900F0FF0945
:10113000A9EB0100A04204D10BF10800894600F0A0
:10114000FF0B6D1CD846EDB2A542BAD3BAF101012E
:1011500001F0FF0AA7D207B0BDE8F08F38040020E5
:1011600000000020600100202DE9F0471D4E0546DB
:101170004FF4004909B1012200E0002249463046FF
:10118000FFF7AEF9002202213046FFF7A9F9B04679
:10119000154F00244FF48056002231463846FFF7A1
:1011A0009FF9280601D5012200E0002220214046B7
:1011B000FFF796F9012231463846FFF791F96806A4
:1011C000641C050EE4B2082CE6D301220221444639
:1011D0004046FFF785F949462046BDE8F047012221
:1011E000FFF77EB9000C02400018024070477047BC
:1011F000FFF77ABA10B592B030216846FFF718F8B9
:1012000014210CA8FFF714F814480024016841F0D9
:1012100080510160006800F0805011901048016812
:1012200041F4804101600068069400F48040119010
:101230000220009001200390102004906846FFF7E0
:10124000BBFB0F20CDE90C040E940F9400210CA8D9
:101250001094FFF7D5FA12B010BD000040380240DC
:10126000007000400548016841F4700101600349C5
:101270004FF00060803908607047000088ED00E0A2
:10128000FEE70907090E002804DB00F1E02080F8E2
:101290000014704700F00F0000F1E02080F8141DEA
:1012A000704702E008C8121F08C1002AFAD170472F
:1012B0007047002001E001C1121F002AFBD17047D6
:1012C000FFF71AFAFFF796FFFFF73AFDFFF794FDD5
:1012D000FFF730FE0022102311461046FFF7D6FE1E
:1012E0001023012200211220FFF7D0FE102302223A
:1012F00000212420FFF7CAFE1023032200213620FC
:10130000FFF7C4FE1023042200214820FFF7BEFE91
:101310001023052200215A20FFF7B8FE10237C225B
:1013200019460020FFF7B0FDFFF78AFEFCE700003A
:101330000000000000000102030406070809000085
:1013400000000102030400006813000800000020F0
:1013500048140000A80200083815000848140020AE
:10136000D8080000B212000811400D404244584015
:10137000407F40405048C67B40440132FF180D0872
:1013800008E8292E28E80808C80C0B063126FF09B2
:1013900049897F1C0F40800611101088681FC808FB
:1013A00010C85452D1129408D01016091909FF051B
:1013B00015FF1292FF3A5F21111B7C40012AFF05A5
:1013C0007AFC0F29704911161060020CC0100AF83F
:1013D000888888FF8888A818101004047C0380601F
:1013E0001F80432C10284681803D808282FE031797
:1013F0008020100886601D8040300F842117808473
:101400004221100C4808101010FF1090084013885B
:101410000868090444827F01808040401809040460
:101420000484E43C2724011AE40C111C040201C2C8
:10143000190139C53115FE225A862BFE920142FE52
:1014400015FF040807180AFF4020030C142241402E
:1014500068164020180680360718204080120110B8
:101460000B207028262120202438601B0101C13A5E
:10147000123C3D9212120240211A3F9413103F4B2E
:10148000408061114BC080014BFC84080336C0C012
:101490003CFF7F40014AFF075B40FF600138034A81
:1014A0007F700373FCF86CFFFE02018BFFFF0B02E1
:1014B00068036C1F1F04017BFFFF0B02741F038C6A
:1014C0007F3F07FFF8F8F0F0702001E60214801A61
:1014D000FF0109122C09132D01FF01C0EDFFFFFED2
:1014E00006011AFF01F915391603FF070201D10C95
:1014F00012FFFFFF1409101509151601FF01C1EDB8
:10150000FFFFFF18011914091015391601FF01D248
:1015100004120201011AFF01011209122A01FF013E
:10152000D71AFF0101FF01FD05FF1F1F0F0F01E08B
:08153000320182101324F400C3
:040000050800018965
:00000001FF
